:100000000C94FD000C9425010C9425010C94250101
:100010000C9425010C9425010C9400370C942501B7
:100020000C9425010C9425010C9425010C942501B8
:100030000C9425010C9425010C9425370C94C83799
:100040000C9425010C94F9350C94D3350C942501AE
:100050000C9491360C9425010C9425010C942501E7
:100060000C94B6360C941F360C94AD350C94873531
:100070000C9425010C9447360C9425010C94250111
:100080000C9425010C9425010C94DB360C946C36F1
:100090000C9425010C9425010C9425010C94250148
:1000A0004E414E494E495459494E46CDCCCC3D0A5D
:1000B000D7233C17B7D13877CC2B329595E6241F40
:1000C000B14F0A000020410000C84200401C4620F9
:1000D000BCBE4CCA1B0E5AAEC59D7400407A10F3CC
:1000E0005A00A0724E18090010A5D4E80000E87666
:1000F00048170000E40B54020000CA9A3B000000BD
:10010000E1F505000080969800000040420F0000D5
:1001100000A08601000000102700000000E8030096
:100120000000006400000000000A00000000000160
:1001300000000000002C76D888DC674F0823DFC160
:10014000DFAE59E1B1B796E5E3E453C63AE651991B
:100150007696E8E6C28426EB898C9B62ED407C6F44
:10016000FCEFBC9C9F40F2BAA56FA5F490055A2AFB
:10017000F75C936B6CF9676DC11BFCE0E40D47FE07
:10018000F520E6B500D0ED902E03009435770500FC
:1001900080841E080000204E0A000000C80C333383
:1001A00033330F986E12831141EF8D2114893BE692
:1001B0005516CFFEE6DB18D1844B381BF77C1D901B
:1001C0001DA4BBE424203284725E228100C9F12484
:1001D000ECA1E53D27005EBCE2613FDD83C29C7E71
:1001E00020A3FD1F41009D23BE46DB65F88C11AFA7
:1001F00032CA57E9740080389B3B11241FBECFEFF1
:10020000CDBFDFE3DEBF2EE2ACE1B8E201C01D925C
:10021000A03AB207E1F718E2A0E0B8E2E8E5FCE8AE
:1002200002C005900D92AC31B107D9F710E0CCEFC8
:10023000D0E004C02197FE010E948243CB3FD1074A
:10024000C9F70E9455390C9492450C9400002F92E6
:100250003F924F925F926F927F928F929F92AF9256
:10026000BF92CF92DF92EF92FF920F931F93CF93A3
:10027000DF93CDB7DEB72897CDBFDEBF8C01CB01B2
:10028000BA0120E030E048EC51E40E94B04120E5A2
:100290003DE847E95CE30E94A44020E030E040E80C
:1002A0005FE30E94B1414B015C010B831C8328E595
:1002B0003BE229833A83EB80FC8036E9E30EF11CB4
:1002C00008E51BE2EB81FC8161917191EB83FC837A
:1002D000072E000C880B990B0E94454020E030E06F
:1002E00040E85AE30E94A44020E030E44CE955E4A1
:1002F0000E94A44020E030E04AE754E40E94A44079
:1003000020E030E04DE454E40E941D4220E030E063
:1003100048E453E40E941D42A50194010E941D423D
:10032000F80161937193819391938F012B813C81AB
:10033000E216F30639F66091542B7091552B80919B
:10034000562B9091572B28E5222E2BE2322EF101CD
:1003500021913191419151911F010E94B141F4E8E5
:100360002F16FCE23F0699F720E030E046E952E420
:100370000E941D422B013C01C090502BD090512B6C
:10038000E090522BF090532B20914E2B30914F2B1D
:100390002B833C8308E51BE2F80181909190A190AA
:1003A000B1908F01A5019401C301B2010E94C54221
:1003B000181674F4A5019401C701B6010E94B14159
:1003C0006B017C012B813C812F5F3F4F2B833C8352
:1003D0002016310609F7EB81FC81BF01FF0F880B66
:1003E000990B0E9445409B01AC01C701B6010E94D8
:1003F0001D426B837C838D839E83C0904A2BD0905B
:100400004B2BE0904C2BF0904D2B2091482B3091B2
:10041000492B2F83388700E21CE2E981FA81819021
:100420009190A190B190E983FA83A50194016B8129
:100430007C818D819E810E943E4087FF16C0A50170
:100440009401C301B2010E94C542181674F4A501BB
:100450009401C701B6010E94B1416B017C012F815B
:1004600038852F5F3F4F2F83388789819A810817FE
:10047000190799F61092482B1092492B10924E2B87
:1004800010924F2B1092542B1092552B1092562BEA
:100490001092572B1092502B1092512B1092522BDE
:1004A0001092532B10924A2B10924B2B10924C2BE4
:1004B00010924D2BEF81F885BF01FF0F880B990B30
:1004C0000E9445409B01AC01C701B6010E941D423C
:1004D00020E030E04AE754E40E94A4406B017C0134
:1004E00020E030E048E453E40E94C54218160CF5C1
:1004F00020E030E048EC52E4C701B6010E94B04170
:100500000E948F42CB012896CDBFDEBFDF91CF91F5
:100510001F910F91FF90EF90DF90CF90BF90AF9021
:100520009F908F907F906F905F904F903F902F9013
:100530000895C701B601E4CFFB01808100008093DC
:10054000C4088091C30887FFFCCF8091C408FB01D9
:100550008083089580913A2890913B28019680935A
:100560003A2890933B280895AF92BF92CF92DF92A2
:10057000EF92FF920F931F93CF93DF936C017B0158
:100580008B01040F151FEB015E01AE18BF08C017E9
:10059000D10759F06991D601ED91FC910190F0815C
:1005A000E02DC6010995892B79F7C501DF91CF911F
:1005B0001F910F91FF90EF90DF90CF90BF90AF9081
:1005C0000895FC01448155816081718188EE9CE22F
:1005D0000C94B402FC01A485B58511968C911197F9
:1005E00081FD0FC09C9186898F5F8F7327892817A3
:1005F00049F0A689AE0FBF2FB11D5D969C93868BE7
:1006000008958C910895FC01508D418D252F30E087
:10061000842F90E0821B930B541710F0CF9608950F
:1006200001970895FC0196898789981761F0A78939
:10063000AE0FBF2FB11D5D968C9197899F5F9F7301
:10064000978B90E008958FEF9FEF0895FC019689B6
:100650008789981731F08789E80FF11D858D90E023
:1006600008958FEF9FEF0895FC0196892789892FC0
:1006700090E0805C9F4F821B91098F7399270895AA
:1006800088EE9CE20E94340321E0892B09F420E0EB
:10069000822F089585E89DE20E94340321E0892B92
:1006A00009F420E0822F0895CF93DF93EC01E881D5
:1006B000F9810680F781E02D0995EC85FD8586811D
:1006C0008F738683EC85FD8585818F7585838F8902
:1006D0008E8B1D8ADF91CF910895FC01613019F452
:1006E000648B81E00895148A6623D9F380E008952D
:1006F000DC0154961C92549754968C9154978230F6
:10070000A0F4282F30E0F901EE0FFF1FE20FF31FD6
:10071000EA0FFB1F9785961303C09685941749F03F
:100720008F5F54968C935497E7CF54961C9280E039
:10073000089581E00895CF93DF93FC01908D818D22
:10074000C485D585981306C08D818F7D8D83DF91FB
:10075000CF910895A18DAE0FBF2FB11DA35ABF4FEA
:100760002C91818D90E001968F739927818F80E481
:100770008C83A485B58512962C93908D818D9813CA
:10078000E6CFA485B58515968C9115978F7D159626
:100790008C93838D8823D9F2848D80931301138EDB
:1007A000D6CFDC011C96ED91FC910FB607FE03C07D
:1007B000258125FD04C0248125FD0C949B0308950B
:1007C000EF92FF920F931F93CF93DF93EC0181E0A1
:1007D0008D8B988D898D98131CC0AC85BD85149622
:1007E0008C91149785FF15C012966C93AC85BD85CE
:1007F00080E414968C93EC85FD8585818F7D8583BF
:1008000081E090E0DF91CF911F910F91FF90EF90E9
:1008100008958091110180FF08C0809113018C8F91
:100820008A8D8093130181E08B8FF62E088D10E066
:100830000F5F1F4F0F731127E02E898D8E1104C09B
:10084000CE010E94D103F9CFE88DEC0FFD2FF11DF1
:10085000E35AFF4FF082088FEC85FD858581806229
:10086000CECFCF93DF93FC0125892223C9F0EC0181
:100870008091110180FF08C080911301848F828DC7
:100880008093130181E0838FEC85FD85858185FD53
:1008900003C0848186FD04C0CE010E94D103F4CF41
:1008A000DF91CF91089580E090E0892B29F00E949C
:1008B0004A0381110E94000080E090E0892B29F01A
:1008C0000E94400381110E94000080E090E0892B8B
:1008D00049F080E090E0892B29F00E94000081110E
:1008E0000E94000080E090E0892B49F080E090E0D9
:1008F000892B29F00E94000081110C9400000895BA
:1009000081E00895CF93DF9390E0FC01E55FF3432E
:1009100020812F3F69F0FC01EE51F443A08130E2C9
:10092000A39FD0011124BC5F613029F411962C9350
:10093000DF91CF91089583599443EC01E881EF3F13
:1009400081F0CD014096E80FF92FF11D9FB7F89483
:1009500012962C938081623039F4886080839FBF27
:10096000E7CFF0E0E0E0F2CF877FF8CF1092022BE4
:100970001092012B1092052B1092472B8091042B83
:1009800081111FC08091E3058073E1F462E082E091
:100990000E94820462E083E00E94820481E08093EE
:1009A000042B1092002B1092FF2A1092032B10920E
:1009B000FE2A91EC9093A3089FE19093A608809360
:1009C000A50808958091E3058073803239F762E0CD
:1009D00080E10E94820462E081E1DECF90E0FC01D0
:1009E000EC5BF443E081EE2319F1E13021F000F1FA
:1009F000E630A8F0089583599443FC012081233008
:100A000008F02F5F3091010A81E090E001C0880F6B
:100A10002A95EAF7809583238093010A089580E15F
:100A2000E89FF0011124E05AF54F81818F7E818388
:100A300008950F931F93CF93DF93082F10E0F801D1
:100A4000E55FF343D081DF3FA1F0C62F893210F478
:100A50000E94EE04F801EE51F443E08180E2E89F49
:100A6000F0011124FC5F80818D2371F0C11106C05B
:100A7000D683DF91CF911F910F910895C43011F467
:100A8000D783F7CFD583F5CFD801A359B4438C9141
:100A9000309771F08F3F61F07096E80FF11D9FB7AE
:100AA000F8948081C11107C0877F80839FBFE1CF09
:100AB000F0E0E0E0F4CF8860F8CF893210F40C94D5
:100AC00019050895AF92BF92CF92DF92EF92FF92F5
:100AD0000F931F93CF93DF93EC016A017B01A22E4A
:100AE0008D89882339F0E881F9810688F789E02D1E
:100AF000CE0109950C8910E0BFB6F89460E070E96A
:100B000080ED93E0A70196010E94DE4269017A011F
:100B10008FEFC81AD80AE80AF80AF694E794D7942F
:100B2000C794EC85FD8586818D7F8683EC85FD8568
:100B3000868186831D8AA09123110A2E000CBB0B8F
:100B4000A70196010E941F4320E034E040E050E0FE
:100B50000E940043EC85FD85C20ED31EE41EF51EE7
:100B6000C086D186EC85FD85A782EC85FD858681D2
:100B7000806C8683EC85FD85858180688583909176
:100B8000E2058B89809589237801EE0CFF1CF70123
:100B9000E00FF11FEC0FFD1F9089892B8093E20578
:100BA0008685893218F462E00E9482040E0D1F1DB2
:100BB000C00FD11F61E08F850E945D058F8589324E
:100BC00018F461E00E948204BFBEDF91CF911F91B3
:100BD0000F91FF90EF90DF90CF90BF90AF9008956E
:100BE0000F931F93CF93082F10E0F801E55FF343B5
:100BF000C081CF3F79F00E94EE04F801EE51F4433A
:100C0000E08180E2E89FF0011124FC5F8085C82329
:100C100081E009F480E0CF911F910F910895833016
:100C2000910528F0880F991F04970197F1F708950F
:100C30009F92AF92BF92CF92DF92EF92FF920F936B
:100C40001F93CF93DF93EC016B018885998511E0A9
:100C5000892B09F010E8F601A0808A2D81239924C0
:100C600093948111912C2C813D814E815F8160E2B2
:100C700071EA87E090E00E94DE42022FB12CE22E62
:100C8000F12C002319F0C7010E940F068A858D7F81
:100C900009F04FC08D858F3F89F09A2D912381E017
:100CA00009F480E0891551F0EF85F8898F8999233F
:100CB000D1F19081892B808399249394E989FA89D1
:100CC0008081998D892B8083002319F0C7010E94B0
:100CD0000F068E858F3F39F0EB89FC898081988DD6
:100CE000892309F0B12AE989FA899081898D809553
:100CF000892380838E858F3F11F0F601B08288852D
:100D00009985892B09F044C0110F1111BACFDF91D9
:100D1000CF911F910F91FF90EF90DF90CF90BF90F8
:100D2000AF909F9008959081809589238083912C26
:100D3000C5CFE989FA898081998D892B8083002329
:100D400019F0C7010E940F068D858F3F49F0EF858E
:100D5000F8898F899A2D9123B9F09081892B80830E
:100D6000E989FA899081898D8095892380838E8590
:100D70008F3F09F4BFCFEB89FC898081988D89234F
:100D800009F4B8CFB12AB6CF908180958923E7CFF7
:100D90001695BBCF8FB7F8942091892A30918A2A73
:100DA00040918B2A50918C2AE091AA0AF091AB0ACB
:100DB0009091A60A90FF08C02F5F3F4F4F4F5F4FA3
:100DC000E091AA0AF091AB0A8FBFA8EEB3E00E94AF
:100DD000654123E0F695E7952A95E1F76E0F7F1FB1
:100DE000811D911D08958F929F92AF92BF92CF92D5
:100DF000DF92EF92FF924B015C010E94CA066B01E9
:100E00007C01A8EEB3E0A50194010E946541C60EE5
:100E1000D71EE81EF91EC616D706E806F90618F40E
:100E20000E94CA06F8CF0E94CA066C157D058E0581
:100E30009F05C8F3FF90EF90DF90CF90BF90AF90E9
:100E40009F908F9008952FB7F8946091892A7091A0
:100E50008A2A80918B2A90918C2A2FBF0895EF9235
:100E6000FF920F931F93CF93DF9390E2899FE0014E
:100E70001124DC5FE984082F000F000F000FFF240E
:100E8000F39410E08E2D8F2179F0E02FE10FF0E048
:100E9000EE0FFF1FE357F54D80819181892B21F0E3
:100EA0000190F081E02D09951F5FFF0C183051F77C
:100EB000E986DF91CF911F910F91FF90EF900895F8
:100EC000DC0180E0615090F09D919827E92FEF7050
:100ED000F0E0EB52FE4F2491E92FE295EF70F0E045
:100EE000EB51FE4FE491822F8E27ECCF0895CF93E4
:100EF000DF93FC019081A181B281F894FD013897C4
:100F00008081892B8083ED0124972881392F3095AA
:100F100023232883C2E0D0E02197F1F78081832347
:100F20008083E0E1F0E03197F1F78C917894E6E688
:100F3000F0E03197F1F7982381E009F480E0DF9148
:100F4000CF910895FC019081A181B281292F209534
:100F5000FD013497189760FF14C0F89480818223B4
:100F600080838C91892B8C93A0E1B0E01197F1F7ED
:100F70008081982B908378948AE690E00197F1F72E
:100F80000895F8948081822380838C91892B8C939F
:100F9000AEE7B0E01197F1F78081982B90837894B9
:100FA00086E090E0EBCFDF92EF92FF920F931F93DA
:100FB000CF93DF93EC01D62EE42E08E010E0FF245F
:100FC000F39461E08D2D8F2109F460E0CE010E9441
:100FD000A207FF0C01501109A1F7E11012C0F8940B
:100FE000E981FA813897908188818095892380836F
:100FF000E981FA8134979081888180958923808363
:101000007894DF91CF911F910F91FF90EF90DF9037
:101010000895EF92FF920F931F93CF93DF938C016C
:101020007B0140E065E50E94D307E70188E0E80E18
:10103000F11C699140E0C8010E94D307CE15DF057D
:10104000C1F7DF91CF911F910F91FF90EF9008951D
:1010500008954F925F926F927F928F929F92AF927C
:10106000BF92CF92DF92EF92FF92B0E0A0E0BA2F52
:10107000A92F982F882720E130E0C12C40E8D42EFA
:10108000EE24EA94F12C812C912C50E8A52EB12C61
:1010900040E050E868E970E0240135014822592217
:1010A0006A227B2245284628472851F02A013B0125
:1010B0004C205D206E207F2084259525A625B72510
:1010C000B694A79497948794F694E794D794C7948A
:1010D000769567955795479521503109E9F6FF9028
:1010E000EF90DF90CF90BF90AF909F908F907F90C8
:1010F0006F905F904F90089508950F9391E09093B3
:10110000032B1092FE2A6093452A7093462A40933F
:10111000442A2093432A1092FF2A1092002B009316
:10112000422A880F8093412A93E024E08091442A48
:10113000882331F09093042B8091412A8E7F09C03F
:101140008091432A882341F02093042B8091412AE7
:1011500081608093A70808C08091442A811104C04F
:101160008091432A882331F38091FE2A8823E1F37A
:101170008091FE2A8330D1F28091432A882321F086
:101180008091002B0F9108959091FE2A81E091307B
:10119000C9F780E0F7CF0F939091042B9130A1F421
:1011A0009091032B911112C0082F20E04091472B02
:1011B00066E07BE28091462B0E947D081092052B11
:1011C0001092472B0F91089580E0F8CF81E0F6CF81
:1011D0001F93CF93DF93EA01122FDC0111968D91BB
:1011E0009C91DC01ED91FC910280F381E02D099549
:1011F000C817D90729F4812F0E94CB0891E08111EB
:1012000090E0892FDF91CF911F910895CF93DF93C5
:10121000EC018B81882389F088818093462B109282
:10122000052B1092472B81E00E94CB0891E08111A1
:1012300090E0892FDF91CF9108950E94B60481E05C
:101240008B83CE010E940609982F8111E5CFF1CF43
:10125000E0EAF8E091859066918792E09093042B04
:1012600080933B2A10923A2A089581E080933A2A8B
:1012700010923B2A93E09093AA089091AB0891FFBB
:101280000BC010923F2AF0E0E0E0099580933E2ADF
:1012900085E08093042B08951092402A80933D2A84
:1012A00086E0F7CF0895E091022B8091012BE8179B
:1012B00030F4F0E0E75BF54D808190E008958FEF2A
:1012C0009FEF08959091022B8091012B2FEF3FEF1C
:1012D000981748F4E92FF0E0E75BF54D208130E006
:1012E0009F5F9093022BC90108958091012B9091EB
:1012F000022B891B990B0895CF92DF92EF92FF92F8
:101300000F931F93CF93DF937C018A01EB016B0155
:10131000C40ED51ECC15DD0551F06991D701ED91B4
:10132000FC910190F081E02DC7010995F3CFC80130
:10133000DF91CF911F910F91FF90EF90DF90CF90B1
:1013400008952091472B203440F021E030E0FC014B
:101350002283338390E080E008958091052BE82F6D
:10136000F0E0EA5FF44D60838F5F8093052B8093FC
:10137000472B81E090E0089590E080E00895FC0123
:10138000FF2790FD12C080E094E1E82BF92B6083E9
:101390008FB7F8949DE923E094BF209300108FBF8E
:1013A0008091021081FDFCCF089580E093E1EDCFA4
:1013B000CF92DF92EF92FF920F931F93CF93DF9321
:1013C0008C016B01FB01E480F5806E2D0E94BF094A
:1013D000D0E0C0E0FF240F5F1F4FCE15DF05BCF447
:1013E000F60184819581C817D90778F480819181AD
:1013F000009759F08C0F9D1FFC016081C8018C0F74
:101400009D1F0E94BF092196E8CF60E0F7CFDF91D2
:10141000CF911F910F91FF90EF90DF90CF900895A3
:10142000FC01FF2790FD06C080E094E1E82BF92B3A
:101430008081089580E093E1F9CF2F923F924F92FF
:101440005F926F927F928F929F92AF92BF92CF9254
:10145000DF92EF92FF920F931F93CF93DF9300D011
:1014600000D0CDB7DEB72091322A3091332A409197
:10147000342A5091352A6091362A7091372A80910A
:10148000382A9091392AA5E00E944D432093322AB0
:101490003093332A4093342A5093352A6093362A66
:1014A0007093372A8093382A9093392A8091302A72
:1014B0009091312A892B09F460C180912E2A909154
:1014C0002F2A892B09F059C140912A2A50912B2AA1
:1014D00060912C2A70912D2AA090222AB090232A64
:1014E000C090242AD090252AE090262AF090272A1E
:1014F0000091282A1091292A8091322A898380918B
:10150000332A8A838091342A8C838091352A8B8375
:10151000B091362AA091372AF091382AE091392AE1
:101520009A01AB0160E070E080E090E00E944443EB
:10153000A980BA80CC80DB80EB2EFA2E0F2F1E2FD5
:101540000E94594308F0A4C080911528882309F40B
:101550009FC060E088E00E94190510921328109245
:1015600014287091322A6091332A5091342A409184
:10157000352A3091362A2091372A9091382A809145
:10158000392A70931A2A60931B2A50931C2A40937D
:101590001D2A30931E2A20931F2A9093202A80937D
:1015A000212A1092152881E08093192A2091322A4D
:1015B0003091332A4091342A5091352A6091362A4D
:1015C0007091372A8091382A9091392AA7E20E9497
:1015D000624309F008F446C081E08093142A8091A8
:1015E000122A9091132A892BB9F580912E2A909175
:1015F0002F2A892B89F58091102A9091112A892B05
:1016000059F580910E2A90910F2A892B29F5809106
:10161000EB2A9091EC2A892BF9F480910C2A909175
:101620000D2A892BC9F480910A2A90910B2A892BC3
:1016300099F48091082A9091092A892B69F4809164
:10164000062A9091072A892B39F48091042A9091D7
:10165000052A892B09F496C081E090E08093FC2A4A
:101660009093FD2A2496CDBFDEBFDF91CF911F91CD
:101670000F91FF90EF90DF90CF90BF90AF909F9031
:101680008F907F906F905F904F903F902F90089534
:101690004091152A5091162A6091172A7091182AA4
:1016A000A0901A2AB0901B2AC0901C2AD0901D2A04
:1016B000E0901E2AF0901F2A0091202A1091212AE2
:1016C0008091322A89838091332A8A838091342AB7
:1016D0008C838091352A8B83B091362AA091372A4A
:1016E000F091382AE091392A9A01AB0160E070E06C
:1016F00080E090E00E944443A980BA80CC80DB80E7
:10170000EB2EFA2E0F2F1E2F0E94594308F04ECFBA
:101710008091192A882309F449CF61E088E00E946A
:10172000190581E090E0809313289093142870911C
:10173000322A6091332A5091342A4091352A3091CF
:10174000362A2091372A9091382A8091392A70932D
:10175000222A6093232A5093242A4093252A3093E7
:10176000262A2093272A9093282A8093292A1092A8
:10177000192A81E08093152819CF60E088E00E9443
:10178000190514CF1092FC2A1092FD2A6BCFDC01B0
:10179000ED91FC910488F589E02D23E030E0099477
:1017A000CF93DF93FC019081A181B281F894FD0178
:1017B00038978081292F20958223808378943DE774
:1017C000315031F18C918923D9F3F894ED012497AC
:1017D0008881822388838081892B80837894CCEBD5
:1017E000D3E02197F1F7F894808182238083E8E8A1
:1017F000F0E03197F1F78C91982381E009F080E0D7
:101800007894E0E3F3E03197F1F7DF91CF91089519
:1018100080E0FBCF6F927F928F929F92AF92BF92A8
:10182000CF92DF92EF92FF920F931F93CF93DF93AC
:101830008C01EB0180917E2E90917F2E0E94D00B27
:10184000882309F43FC0B80180917E2E90917F2EAD
:101850000E94090840E06EEB80917E2E90917F2ED1
:101860000E94D3077E016E0189E0C80ED11C8E0153
:10187000A0907E2EB0907F2E88E0882E912C712C27
:1018800066246394C5010E94770781117628660C4F
:10189000E1E08E1A9108B1F7F80171928F01CE162E
:1018A000DF0631F780917E2E90917F2E0E94D00B23
:1018B000813041F4F70181917F01811105C0E0176A
:1018C000F107C1F790E008C068E0CE010E94600710
:1018D00091E028852813F6CF892FDF91CF911F91B2
:1018E0000F91FF90EF90DF90CF90BF90AF909F90BF
:1018F0008F907F906F900895BF92CF92DF92EF927A
:10190000FF920F931F93CF93DF93EC01B62EC72E58
:101910008D85811105C0CE010E94D00B81110EC0B2
:101920001B861D861C8680E0DF91CF911F910F9151
:10193000FF90EF90DF90CF90BF90089540E060EF70
:10194000CE010E94D30701E0E12CD12C11E0CE01A1
:101950000E947707F82ECE010E94770791E0F912D6
:1019600018C0813099F51134D8F2DB86D11002C04D
:1019700081E08D878B81882399F22396EB2DFC2DB6
:10198000CF01089629912193E817F907D9F781E04B
:10199000CBCFEE2DF0E0F8120FC08B851817A0F416
:1019A000DE01AE0FBF1F13968C91802379F4F12CCA
:1019B000193008F41C87D12EEC0FFD1F8381902F66
:1019C0009095892383830AC08113F1CFFE01EE0D28
:1019D000F11D8381802B8383FF24F3946F2DCE012F
:1019E0000E94A2071F5F000F11F4E39401E087E05B
:1019F0008E1508F0ACCFB7CF2F923F924F925F92E7
:101A00006F927F928F929F92AF92BF92CF92DF920E
:101A1000EF92FF920F931F93CF93DF93CDB7DEB773
:101A20002897CDBFDEBFFC016B01642E96818781B4
:101A300099838A83E080F180E114F10409F474C091
:101A4000418550E0D70114968D919C91159784178C
:101A5000950708F420C28C918093462B1092052B99
:101A60001092472B20E0BE016F5F7F4FC7010E949D
:101A7000E808882309F40FC2A62CB12CF701848151
:101A800095818A159B0508F406C2808129E43AE213
:101A90002093472A3093482A9091042B913009F0E3
:101AA0003FC09091032B91113DC001E0262D40E0F5
:101AB00070E060E00E947D081092022B8093012B61
:101AC0008A151B0409F0E7C18601D70111968D9193
:101AD0009C91DC01ED91FC910284F385E02D099548
:101AE000F80181938F01CF018C199D098A159B05FF
:101AF00060F381E02896CDBFDEBFDF91CF911F91CB
:101B00000F91FF90EF90DF90CF90BF90AF909F909C
:101B10008F907F906F905F904F903F902F9008959F
:101B200080E0CACF81E0C8CFE280F380E114F10405
:101B300009F4B1C1248135812115310509F04AC06C
:101B400090689983262D30E02C833D83A1844A2D13
:101B500050E04E835F83D701AD90BC901197A114E4
:101B6000B104A9F012960D90BC91A02DEC91E887DC
:101B700011961C91D50116968C91882319F081FF3E
:101B800034C0F894B885B093C0081093C10860E0E1
:101B9000F70183850E945D059E012F5F3F4F49013C
:101BA0008901D7018D919C91980128193909EE81FD
:101BB000FF812E173F0708F0B1C0D8012D918D018C
:101BC0002B83BE016D5F7F4F009709F4A3C00E9475
:101BD0009C02E7CF2230310511F49F77B2CF21303C
:101BE000310509F0AFCF906CACCF80FFCBCFF501C2
:101BF00040855185628573851A012B01612C712CFA
:101C00004301E0E09101A201B301C401A0E00E9400
:101C10006243B1F1217030E040E050E060E070E0FC
:101C200080E090E00E946243F1F090E080E0E033D9
:101C300070F48E2F869586958695F0E28F9FC00171
:101C40001124805F9B4F2E2F2770820F911DDC0186
:101C50004C9195012E0F311DD90150964C93DC010A
:101C60002C91287F2C939101A201B301C40101E0C2
:101C70000E94294319012A013B014C01EF5FC2CFA9
:101C8000F50144855585668577851A012B01612C00
:101C9000712C4301E0E29101A201B301C401A0E073
:101CA0000E94624309F46ECF217030E040E050E0C2
:101CB00060E070E080E090E00E946243F1F090E02C
:101CC00080E0E03370F48E2F869586958695F0E25D
:101CD0008F9FC0011124805F9B4F2E2F2770820F92
:101CE000911DDC014C9195012E0F311DD9015096AB
:101CF0004C93DC012C91287F2C939101A201B3011C
:101D0000C40101E00E94294319012A013B014C0151
:101D1000EF5FC1CFC7010E94180643CF8601BB24E5
:101D2000BA94BB82F70180819181BE016D5F7F4FC4
:101D3000009711F10E949C028B81D8018D938D0137
:101D4000CD018C199D09EC81FD818E179F0748F309
:101D500061E0D7011B968C910E945D05D701ED9142
:101D6000FC91309709F4C5CE8681882309F4C1CE51
:101D700081FF06C07894BDCEC7010E941806DCCF53
:101D800080FFB7CE80849184A284B384C12CD12CEF
:101D9000760110E09401A501B601C701A0E00E9400
:101DA0006243A1F1217030E040E050E060E070E07B
:101DB00080E090E00E946243E1F090E080E0103328
:101DC00070F4812F869586958695B0E28B9FC00131
:101DD0001124805F9B4F212F2770820F911D9F013F
:101DE000210F311DD90150962C91DC013C91232B00
:101DF0002C939401A501B601C70101E00E9429437B
:101E000049015A016B017C011F5FC4CF8484958412
:101E1000A684B784C12CD12C760110E29401A501CF
:101E2000B601C701A0E00E94624309F462CE2170AE
:101E300030E040E050E060E070E080E090E00E9440
:101E40006243E1F090E080E0103370F4812F8695DA
:101E500086958695B0E28B9FC0011124805F9B4FD1
:101E6000212F2770820F911D9F01210F311DD90154
:101E700050962C91DC013C91232B2C939401A501CD
:101E8000B601C70101E00E94294349015A016B01D3
:101E90007C011F5FC3CF80E02DCE0C942444CF93F0
:101EA000DF93EC0188819981009711F00E9424440E
:101EB000188219821C821D821A821B82DF91CF91A7
:101EC0000895FC01808191810C9424440C94244455
:101ED000FC0180819181009711F00C94F03B60E04F
:101EE00070E0CB010895FC0180819181009711F091
:101EF0000C94F43B60E070E0CB010895FC01248178
:101F00003581FB014481558124173507E1F4FC013B
:101F100080819181FB01608171810097D1F0611511
:101F20007105A1F4232BC1F0FC01808190E008C071
:101F3000232B91F0FB01808190E09195819591098F
:101F400021E0892B09F020E0822F08950E9473453B
:101F5000F7CF6115710561F721E0F6CF0F931F935D
:101F6000CF93DF93EC0188819981009759F02A8102
:101F70003B812617370730F081E0DF91CF911F9129
:101F80000F9108958B016F5F7F4F0E94AD440097C2
:101F900059F0888399830A831B832C813D81232BED
:101FA00059F7FC011082E8CF80E0E7CFEF92FF9273
:101FB0000F931F93CF93DF936115710541F480E078
:101FC000DF91CF911F910F91FF90EF9008954115F0
:101FD0005105B1F07B01EC010C811D81040F151F2F
:101FE000B8010E94AE0F882351F3288139818C817A
:101FF0009D81B701820F931F0E947C450C831D8336
:1020000081E0DECFEF92FF920F931F93CF93DF9388
:10201000CDB7DEB76497CDBFDEBF7C01CB01BA017F
:102020008E010F5F1F4F22E044E00E94D23BFC0173
:1020300001900020E9F73197AF01481B590BBC0113
:10204000C7010E94D60F811103C0C7010E944F0F24
:10205000C7016496CDBFDEBFDF91CF911F910F9175
:10206000FF90EF900895EF92FF920F931F93CF93FD
:10207000DF93CDB7DEB72D97CDBFDEBF7C01CB019F
:10208000BA012AE08E010F5F1F4FA8010E944A3C4F
:10209000F80101900020E9F73197AF01401B510B87
:1020A000B801C7010E94D60F811103C0C7010E9469
:1020B0004F0FC7012D96CDBFDEBFDF91CF911F918E
:1020C0000F91FF90EF900895EF92FF920F931F935F
:1020D000CF93DF93CDB7DEB72897CDBFDEBF7C01AE
:1020E000CB014AE08E010F5F1F4FB8010E941B3CDD
:1020F000F80101900020E9F73197AF01401B510B27
:10210000B801C7010E94D60F811103C0C7010E9408
:102110004F0FC7012896CDBFDEBFDF91CF911F9132
:102120000F91FF90EF900895CF93DF93EC01FB01A7
:1021300001900020E9F73197AF01461B570B0E9431
:10214000D60F811103C0CE010E944F0FCE01DF9147
:10215000CF910895CF93DF93EC01FB01448155812A
:10216000608171810E94D60F811103C0CE010E944F
:102170004F0FCE01DF91CF910895EF92FF920F9311
:102180001F93CF93DF93EC017B018A01BA010E9478
:10219000AE0F81110BC0CE010E944F0FCE01DF9117
:1021A000CF911F910F91FF90EF9008950C831D83A5
:1021B000B701888199810E947C45F0CFFB01019095
:1021C0000020E9F73197AF01461B570B0C94BD1067
:1021D000CF93DF93EC01FB018617970749F06081ED
:1021E00071816115710541F0448155810E94BD10D6
:1021F000CE01DF91CF9108950E944F0FF9CFFC01DE
:102200001082118212821382148215820C94E810BB
:10221000FC01108211821282138214821582FB014A
:1022200001900020E9F73197AF01461B570B0C9442
:10223000BD106F927F928F929F92AF92BF92CF927A
:10224000DF92EF92FF920F931F93CF93DF93CDB75F
:10225000DEB74C015B016DB67EB6CB010E94100A61
:10226000082F10E0C80101962DB73EB7281B390B87
:102270002DBF3EBF8DB79EB701966C0175015C0105
:102280009FEFE91AF90AC5018C199D09801791077A
:102290003CF4C7010E94100AF50181935F01F0CF61
:1022A000F601E00FF11F1082B601C4010E9408116F
:1022B000C4016DBE7EBEDF91CF911F910F91FF9043
:1022C000EF90DF90CF90BF90AF909F908F907F90D6
:1022D0006F9008951F93CF93DF93CDB7DEB76897C4
:1022E000CDBFDEBF90E080E00E94100A1CE3819F1A
:1022F000C0011124092E000CAA0BBB0B8093152AD8
:102300009093162AA093172AB093182A84E090E09D
:102310000E94100A819FC0011124092E000CAA0BF3
:10232000BB0B80932A2A90932B2AA0932C2AB0933C
:102330002D2A10921A2A10921B2A10921C2A1092EF
:102340001D2A10921E2A10921F2A1092202A1092E3
:10235000212A1092222A1092232A1092242A1092C3
:10236000252A1092262A1092272A1092282A1092A3
:10237000292A8DE290E00E94100A90E0B0E0A0E0EF
:102380008093452990934629A0934729B0934829E3
:1023900081E390E00E94100A90E0B0E0A0E080931A
:1023A000252990932629A0932729B093282985E3EE
:1023B00090E00E94100A819FC0011124809331296E
:1023C0009093322989E290E00E94100A90E0B0E0F8
:1023D000A0E080930C2990930D29A0930E29B0932F
:1023E0000F2985E390E00E94100A819FC00111240B
:1023F0008093D9289093DA288CE090E00E94100A0C
:10240000682F70E090E080E00E9445402DEC3CECAD
:102410004CEC5DE30E94A44060934C2970934D29DD
:1024200080934E2990934F2988E090E00E94100AF3
:10243000682F70E090E080E00E9445402DEC3CEC7D
:102440004CEC5DE30E94A44060932C2970932D29ED
:1024500080932E2990932F2980E190E00E94100A0A
:10246000682F70E090E080E00E9445402DEC3CEC4D
:102470004CEC5DE30E94A4406093262870932728CB
:10248000809328289093292864E170E0CE0101967A
:102490000E941911CE0101960E94730F072E000CA5
:1024A000880B990B0E9445406093532970935429DF
:1024B000809355299093562969E170E0CE010796E3
:1024C0000E941911CE0107960E94730F072E000C6F
:1024D000880B990B0E94454060932A2870932B2803
:1024E00080932C2890932D286FE170E0CE010D96FB
:1024F0000E94191164E270E0CE0143960E94191106
:10250000CE010D960E94680F60932E2870932F289D
:102510008093302890933128CE0143960E94680F13
:102520006093322870933328809334289093352811
:10253000CE0143960E94610FCE010D960E94610F5D
:10254000CE0107960E94610FCE0101960E94610F95
:102550006896CDBFDEBFDF91CF911F9108958F9216
:102560009F92AF92BF92CF92DF92EF92FF920F9322
:102570001F93CF93DF93EC018B01FB01C480D580C7
:10258000D60111972FEF3FEFB12CA12C90E080E006
:1025900070E060E0A817B9072CF1461757072CF137
:1025A000FC0131967F018C159D0560F4F801808057
:1025B00091808114910431F0F401E80FF91FE0815A
:1025C000EC3219F0A817B90759F46F5F7F4F590122
:1025D000FFEFAF1ABF0A9701A817B90709F09C01CE
:1025E000C701D8CF46175707ECF569012A153B05F7
:1025F00010F06501590167E57CECCE010E940811DD
:10260000F801E480F580CE14DF04D8F4AE14BF04E2
:1026100008F47501F80160817181FB01EE0DFF1D69
:10262000B08010826C0D7D1DCE0161157105B9F071
:102630000E94DE10F80180819181E80EF91EF701F9
:10264000B082CE01DF91CF911F910F91FF90EF905B
:10265000DF90CF90BF90AF909F908F9008950E9491
:102660004F0FE8CF67E57CECCE010E940811E9CF5F
:102670000F931F93CF93DF938C01EB0188E2FB0153
:1026800011928A95E9F74BE050E064E37CECCE01CF
:102690000E9483451B8681E090E0A0E0B0E08C873B
:1026A0009D87AE87BF87F80183819481092E000C36
:1026B000AA0BBB0B888B998BAA8BBB8B8DE090E010
:1026C000A0E0B0E08C8B9D8BAE8BBF8B1CA21DA2BB
:1026D0001EA21FA280E090E0A0E2B2EC8C8F9D8F42
:1026E000AE8FBF8F80E090E0AAEAB2E4888F998F26
:1026F000AA8FBB8F8AE999E9A9E9BEE388A399A3C8
:10270000AAA3BBA3DF91CF911F910F9108950F93BF
:102710001F93CF93DF938C01EB0188E2FB011192B1
:102720008A95E9F74BE050E06DE37CECCE010E9426
:1027300083451B8681E090E0A0E0B0E08C879D8718
:10274000AE87BF87F80183819481092E000CAA0B04
:10275000BB0B888B998BAA8BBB8B8CE090E0A0E0A5
:10276000B0E08C8B9D8BAE8BBF8B1CA21DA21EA2DA
:102770001FA21C8E1D8E1E8E1F8E80E090E0A8EC86
:10278000B2E4888F998FAA8FBB8F80E090E0A0E0A1
:10279000B0E488A399A3AAA3BBA3DF91CF911F9113
:1027A0000F9108954F925F926F927F929F92AF9296
:1027B000BF92CF92DF92EF92FF920F931F93CF932E
:1027C000DF93CDB7DEB76A97CDBFDEBF8C017B014B
:1027D0006A010E9423072B013C0180E48A8FD80103
:1027E0001C968D919C91FC0124813581232BA9F4A9
:1027F000912C892D6A96CDBFDEBFDF91CF911F91BD
:102800000F91FF90EF90DF90CF90BF90AF909F908F
:102810007F906F905F904F90089520812093462B7A
:102820001092052B1092472B21E041E050E0BE01B1
:10283000665E7F4F0E94E8088823D1F264E170E071
:1028400080E090E00E94F306F80184859585188A5F
:10285000198A1A8A1B8A89839A831B821C8281E0C7
:102860008A871F8218861B8686E0898746E0BE011C
:102870006C5E7F4FCE0101960E94FC0C982E88233F
:1028800009F4B6CFAC88BD88BA24AB24BA24C501FC
:102890000E9429089E899813ABCFB50190E080E093
:1028A0000E94434020E03FEF4FE757E40E941D4263
:1028B00020E030E045E253E40E94A44020E030E014
:1028C00040E252E40E94B041D8016D937D938D9314
:1028D0009C931397AF88B88CBA24AB24BA24C50153
:1028E0000E942908998D981384CFB50190E080E06B
:1028F0000E94434020E03FEF4FE757E40E941D4213
:1029000020E030E048EC52E40E94A440F8016483E7
:10291000758386839783C114D10481F1F6013496BF
:1029200080E2DF011D928A95E9F784E290E0A0E061
:10293000B0E0F60180839183A283B383D8011A9615
:102940008D919C91B0E0A0E084839583A683B783AA
:102950008DE090E0A0E0B0E080879187A287B38708
:10296000408A518A628A738AF80180819181A281AA
:10297000B381F601848B958BA68BB78BE114F104A0
:1029800009F437CFF701349680E2DF011D928A9572
:10299000E9F784E290E0A0E0B0E0F7018083918362
:1029A000A283B383D80118968D919C91B0E0A0E0EA
:1029B00084839583A683B7838DE090E0A0E0B0E0A8
:1029C00080879187A287B387408A518A628A738AF7
:1029D000F80184819581A681B781F701848B958B5D
:1029E000A68BB78B06CFAB0170E060E0FC01858160
:1029F00096810E94D21381E0089550E040E0FC01EE
:102A0000858196810E94D21381E008952F923F9292
:102A10004F925F926F927F928F929F92AF92BF92EE
:102A2000CF92DF92EF92FF920F931F93CF93DF939A
:102A3000CDB7DEB7C250D140CDBFDEBFA8958E0165
:102A40000F5F1F4F180188EE9CE20E943403CF52A3
:102A5000DF4F88839983C15DD040892B11F40C949A
:102A6000892488EE9CE20E9412038C0189831A82D9
:102A700041E050E0B10182E59EE20E94D60F0A30AB
:102A8000110509F72091562E3091572E2093022AD6
:102A90003093032A6091522E7091532E4091002A58
:102AA0005091012A90E080E082179307F4F140935F
:102AB000002A5093012A10E000E0E090002AF090F4
:102AC000012A62E57EE20E151F050CF042C0CE0120
:102AD00089569F4F0E94FF10A801BE0169567F4F83
:102AE000C1010E94AF12CE0189569F4F0E94610F13
:102AF000C1010E94680F9B01AC016091FC2970919B
:102B0000FD298091FE299091FF290E94B141609397
:102B1000FC297093FD298093FE299093FF29C10120
:102B20000E94610F0F5F1F4FC8CF8217930730F4C9
:102B3000FB01E80FF91F6115710521F4109225289A
:102B4000E5E2F8E2E081EC3211F44F5F5F4F01966D
:102B5000ABCFC1010E94FF10A701B101CE01895482
:102B60009F4F0E94AF12C1010E94610FCE01895494
:102B70009F4F0E94680F6B017C0120E030E040E233
:102B800051E46091FC297091FD298091FE2990917A
:102B9000FF290E94B141A70196010E943E40811188
:102BA0000C94642462E57EE2C1010E94FF1041E0C2
:102BB00050E0B101CE018F549F4F0E94AF12C1016E
:102BC0000E94610FCE018F549F4F0E94730F60933C
:102BD000FA297093FB296B30710509F039C3009114
:102BE000302A1091312A4090A1295090A22960905A
:102BF000A3297090A42920919D2930919E2940916C
:102C00009F295091A029C753DF4F288339834A83D6
:102C10005B83C95CD0404091992950919A29609179
:102C20009B2970919C29CF52DF4F488359836A8337
:102C30007B83C15DD0406091712970917229809130
:102C4000732990917429CB52DF4F688379838A83EB
:102C50009B83C55DD0408091652990916629A091A4
:102C60006729B0916829C352DF4F88839983AA836B
:102C7000BB83CD5DD04020915C2930915D2940918E
:102C80005E2950915F29C752DF4F288339834A83D9
:102C90005B83C95DD040E0906F29F0907029CF51DF
:102CA000DF4FE882F982C15ED040E0906D29F0905C
:102CB0006E29CB51DF4FE882F982C55ED040E090AB
:102CC0006B29F0906C29C751DF4FE882F982C95E09
:102CD000D040E0906929F0906A29C351DF4FE88223
:102CE000F982CD5ED0408090ED2A9090EE2AA0909F
:102CF000EF2AB090F02AE0901328F0901428CF50DB
:102D0000DF4FE882F982C15FD040E0900129F09066
:102D10000229CB50DF4FE882F982C55FD040E090B6
:102D20001029F0901129C950DF4FE882F982C75F5E
:102D3000D040E090F628F090F728C550DF4FE882A9
:102D4000F982CB5FD040E0902929F0902A29C35026
:102D5000DF4FE882F982CD5FD040E0904929F090C2
:102D60004A29C150DF4FE882F982CF5FD040E0901E
:102D7000FC2AF090FD2ACF5FDE4FE882F982C15035
:102D8000D140B801012E000C880B990B0E944540E0
:102D9000A30192010E94B141C753DF4F28813981BD
:102DA0004A815B81C95CD0400E94B141CF52DF4F64
:102DB000288139814A815B81C15DD0400E94B14147
:102DC000CB52DF4F288139814A815B81C55DD0407C
:102DD0000E94B141C352DF4F288139814A815B8112
:102DE000CD5DD0400E94B141C752DF4F288139816B
:102DF0004A815B81C95DD0400E94B1416B017C0179
:102E0000CF51DF4F28813981C15ED040B901330FE6
:102E1000880B990B0E9445409B01AC01C701B6018C
:102E20000E94B1416B017C01CB51DF4F4881598138
:102E3000C55ED040BA01550F880B990B0E944540E2
:102E40009B01AC01C701B6010E94B1416B017C013D
:102E5000C751DF4FA881B981C95ED040BD01BB0F0A
:102E6000880B990B0E9445409B01AC01C701B6013C
:102E70000E94B1416B017C01C351DF4FE881F981B0
:102E8000CD5ED040BF01FF0F880B990B0E944540DB
:102E90009B01AC01C701B6010E94B14120E030E0C6
:102EA00040EA52E40E94B1416B017C01C501B401CA
:102EB0000E9445409B01AC01C701B6010E94B1418F
:102EC0006B017C01CF50DF4F28813981C15FD04039
:102ED000B901330F880B990B0E9445409B01AC014F
:102EE000C701B6010E94B1416B017C01CB50DF4F9D
:102EF00048815981C55FD040BA01550F880B990BA5
:102F00000E9445409B01AC01C701B6010E94B1413E
:102F10006B017C01C950DF4FA881B981C75FD040E8
:102F2000BD01BB0F880B990B0E9445409B01AC0172
:102F3000C701B6010E94B1416B017C01C550DF4F52
:102F4000E881F981CB5FD040BF01FF0F880B990B5F
:102F50000E9445409B01AC01C701B6010E94B141EE
:102F60006B017C01C350DF4F28813981CD5FD04098
:102F7000B901330F880B990B0E9445409B01AC01AE
:102F8000C701B6010E94B1416B017C01C150DF4F06
:102F900048815981CF5FD040BA01550F880B990BFA
:102FA0000E9445409B01AC01C701B6010E94B1419E
:102FB0006B017C01CF5FDE4FA881B981C150D14048
:102FC000BD01BB0F880B990B0E9445409B01AC01D2
:102FD000C701B6010E94B14120E030E040E251E477
:102FE0000E94B1416B017C01C092F629D092F72971
:102FF000E092F829F092F92967E57CECCE01815640
:103000009F4F0E940811BE0161567F4FCE01895625
:103010009F4F0E94FF10B301A201CE0189569F4F1E
:103020000E94021066E47CEC0E949410B8010E9499
:10303000641066E47CEC0E949410C753DF4F488113
:1030400059816A817B81C95CD0400E94021066E48C
:103050007CEC0E949410CF52DF4F488159816A81E5
:103060007B81C15DD0400E94021066E47CEC0E942E
:103070009410CB52DF4F488159816A817B81C55DB5
:10308000D0400E94021066E47CEC0E949410C3526F
:10309000DF4F488159816A817B81CD5DD0400E949C
:1030A000021066E47CEC0E949410C752DF4F488106
:1030B00059816A817B81C95DD0400E94021066E41B
:1030C0007CEC0E949410CF51DF4F68817981C15E02
:1030D000D0400E94641066E47CEC0E949410CB51B6
:1030E000DF4F68817981C55ED0400E94641066E43C
:1030F0007CEC0E949410C751DF4F68817981C95ED2
:10310000D0400E94641066E47CEC0E949410C3518D
:10311000DF4F68817981CD5ED0400E94641066E403
:103120007CEC0E94941060E570E00E94641066E4FC
:103130007CEC0E9494108C012AE0A101C501B4012D
:103140000E94263CF10101900020E9F73197AF0180
:1031500042195309B101C8010E94D60F811103C061
:10316000C8010E944F0F66E47CECC8010E949410D5
:10317000CF50DF4F68817981C15FD0400E946410D9
:1031800066E47CEC0E949410CB50DF4F688179811B
:10319000C55FD0400E94641066E47CEC0E949410ED
:1031A000C950DF4F68817981C75FD0400E946410A9
:1031B00066E47CEC0E949410C550DF4F68817981F1
:1031C000CB5FD0400E94641066E47CEC0E949410B7
:1031D000C350DF4F68817981CD5FD0400E94641079
:1031E00066E47CEC0E949410C150DF4F68817981C5
:1031F000CF5FD0400E94641066E47CEC0E94941083
:10320000CF5FDE4F68817981C150D1400E94641048
:1032100066E47CEC0E949410B701A6010E940210A3
:1032200066E47CEC0E9494106BE070E00E946410F5
:1032300066E57CEC0E9494100E94E102CE01895662
:103240009F4F0E94610FCE0181569F4F0E94610FD8
:103250008091FA299091FB29819709F046C080E07E
:1032600090E0A0EDB1E48093F6299093F729A09324
:10327000F829B093F92967E57CECCE0189569F4F78
:103280000E940811BE0169567F4FC1010E94FF10C4
:1032900061E070E0C1010E94641066E47CEC0E9471
:1032A00094106FE070E00E94641066E47CEC0E9471
:1032B000941040E050E060ED71E40E94021066E47A
:1032C0007CEC0E94941061E270E00E94641066E55C
:1032D0007CEC0E9494100E94E102C1010E94610FE7
:1032E000CE0189569F4F0E94610F8091FA299091DB
:1032F000FB29C79709F075C200912A2A10912B2A41
:1033000020912C2A30912D2A4090152A5090162A6F
:103310006090172A7090182A40912C2950912D29DD
:1033200060912E2970912F29C753DF4F488359830D
:103330006A837B83C95CD04060914C2970914D2990
:1033400080914E2990914F29CF52DF4F6883798326
:103350008A839B83C15DD040809126289091272845
:10336000A0912828B0912928CB52DF4F88839983D8
:10337000AA83BB83C55DD040409153295091542905
:103380006091552970915629C352DF4F4883598364
:103390006A837B83CD5DD04060912A2870912B2871
:1033A00080912C2890912D28C752DF4F6883798314
:1033B0008A839B83C95DD04080912E2890912F28CD
:1033C000A0913028B0913128CF51DF4F8883998365
:1033D000AA83BB83C15ED0404091322850913328EC
:1033E0006091342870913528CB51DF4F4883598341
:1033F0006A837B83C55ED04060910C2970910D2952
:1034000080910E2990910F29C751DF4F68837983EE
:103410008A839B83C95ED04080912529909126297B
:10342000A0912729B0912829C351DF4F8883998320
:10343000AA83BB83CD5ED040409145295091462957
:103440006091472970914829CF50DF4F48835983B5
:103450006A837B83C15FD04080913129909132296A
:103460006CE370E00E94CA42CB50DF4F68837983DF
:10347000C55FD0408CE3C82ED12CE12CF12CC901C2
:10348000B801A70196010E94DE4249015A01C30119
:10349000B201A70196010E94DE42C501B401620F8C
:1034A000731F841F951F0E944340C753DF4F28811D
:1034B00039814A815B81C95CD0400E94B141CF52C1
:1034C000DF4F288139814A815B81C15DD0400E94F4
:1034D000B141CB52DF4F288139814A815B81C55D83
:1034E000D0400E94B141C352DF4F288139814A81C7
:1034F0005B81CD5DD0400E94B141C752DF4F288132
:1035000039814A815B81C95DD0400E94B141CF5170
:10351000DF4F288139814A815B81C15ED0400E94A2
:10352000B141CB51DF4F288139814A815B81C55E32
:10353000D0400E94B1414B015C01C751DF4F68810F
:1035400079818A819B81C95ED0400E9443409B0162
:10355000AC01C501B4010E94B1414B015C01C351F2
:10356000DF4F688179818A819B81CD5ED0400E9446
:1035700043409B01AC01C501B4010E94B1414B0124
:103580005C01CF50DF4F688179818A819B81C15F67
:10359000D0400E9443409B01AC01C501B4010E9490
:1035A000B1414B015C01CB50DF4F08811981C55FF0
:1035B000D040B801110F880B990B0E9445409B0128
:1035C000AC01C501B4010E94B14120E030E040E20D
:1035D00051E40E94B1414B015C018092F629909226
:1035E000F729A092F829B092F9292091152A309153
:1035F000162A4091172A5091182AC950DF4F288364
:1036000039834A835B83C75FD04040902A2A509019
:103610002B2A60902C2A70902D2A67E57CECCE0135
:1036200089569F4F0E940811BE0169567F4FC10104
:103630000E94FF10C301B201A70196010E94DE4261
:10364000BA01A901C1010E94331066E47CEC0E941A
:1036500094108C01C950DF4F688179818A819B81E8
:10366000C75FD040A70196010E94DE42BA01A901BE
:10367000C8010E94331066E47CEC0E949410C7538A
:10368000DF4F488159816A817B81C95CD0400E94AB
:10369000021066E47CEC0E949410CF52DF4F488108
:1036A00059816A817B81C15DD0400E94021066E42D
:1036B0007CEC0E949410CB52DF4F488159816A8183
:1036C0007B81C55DD0400E94021066E47CEC0E94C4
:1036D0009410C352DF4F488159816A817B81CD5D4F
:1036E000D0400E94021066E47CEC0E949410C75205
:1036F000DF4F488159816A817B81C95DD0400E943A
:10370000021066E47CEC0E949410CF51DF4F488198
:1037100059816A817B81C15ED0400E94021066E4BB
:103720007CEC0E949410CB51DF4F488159816A8113
:103730007B81C55ED0400E94021066E47CEC0E9452
:103740009410C751DF4F488159816A817B81C95EDE
:10375000D0400E94331066E47CEC0E949410C35168
:10376000DF4F488159816A817B81CD5ED0400E94C4
:10377000331066E47CEC0E949410CF50DF4F4881F8
:1037800059816A817B81C15FD0400E94331066E419
:103790007CEC0E949410CB50DF4F68817981C55F2B
:1037A000D0400E94641066E47CEC0E949410B50145
:1037B000A4010E94021066E47CEC0E94941067E36E
:1037C00070E00E94641066E57CEC0E9494100E94F8
:1037D000E102C1010E94610FCE0189569F4F0E94F4
:1037E000610F8091FA299091FB298D34910519F48C
:1037F000F0E0E0E009958091FA299091FB29833669
:10380000910509F0F8C080902E2A90902F2AA09060
:10381000122AB090132AC090102AD090112AE0905A
:103820000E2AF0900F2A0091EB2A1091EC2A209199
:103830000C2A30910D2AC753DF4F28833983C95C86
:10384000D04040910A2A50910B2ACF52DF4F488333
:103850005983C15DD0406091042A7091052ACB52F2
:10386000DF4F68837983C55DD0408091082A9091AD
:10387000092AC352DF4F88839983CD5DD040A09140
:10388000062AB091072AC752DF4FA883B983C95DC2
:10389000D040B4016A0D7B1D6C0D7D1D6E0D7F1D2A
:1038A000600F711F620F731F640F751FCB52DF4FC4
:1038B000E881F981C55DD0406E0F7F1F680F791FC9
:1038C0006A0F7B1F665F7F4F072E000C880B990BDA
:1038D0000E9445402B013C014092F6295092F72965
:1038E0006092F8297092F92967E57CECCE0189563F
:1038F0009F4F0E940811BE0169567F4FC1010E946F
:10390000FF10B401C1010E94641066E47CEC0E94C7
:103910009410B5010E94641066E47CEC0E9494103F
:10392000B6010E94641066E47CEC0E949410B7011A
:103930000E94641066E47CEC0E949410B8010E941E
:10394000641066E47CEC0E949410C753DF4F6881DA
:103950007981C95CD0400E94641066E47CEC0E94CE
:103960009410CF52DF4F68817981C15DD0400E94B1
:10397000641066E47CEC0E949410CB52DF4F6881A7
:103980007981C55DD0400E94641066E47CEC0E94A1
:103990009410C352DF4F68817981CD5DD0400E9481
:1039A000641066E47CEC0E949410C752DF4F68817B
:1039B0007981C95DD0400E94641066E47CEC0E946D
:1039C0009410B301A2010E94021066E47CEC0E94F4
:1039D000941063E670E00E94641066E57CEC0E943F
:1039E00094100E94E102C1010E94610FCE0189562C
:1039F0009F4F0E94610F8091FA299091FB29892B9A
:103A000009F0CDC162E57EE2C1010E94FF1042E0F3
:103A100050E0B101CE0189569F4F0E94AF12C10103
:103A20000E94610F62E57EE2CE0181569F4F0E94A7
:103A3000FF1043E050E0BE0161567F4FC1010E947C
:103A4000AF12CE0181569F4F0E94610FCE01895661
:103A50009F4F0E94730F8B016093F4297093F52997
:103A6000C1010E94730F6093F2297093F329012B17
:103A700009F074C0672B09F01AC21092F12981E095
:103A80008093F029109212280E9423078B019C0139
:103A90006093E8291093E9298093EA293093EB2970
:103AA0001092EC291092ED291092EE291092EF2934
:103AB0006093E0291093E1298093E2293093E32970
:103AC0001092E4291092E5291092E6291092E72934
:103AD0006093D8291093D9298093DA293093DB2970
:103AE0001092DC291092DD291092DE291092DF2934
:103AF0006093D0291093D1298093D2293093D32970
:103B00001092D4291092D5291092D6291092D72933
:103B100067E57CECCE0181569F4F0E940811BE01E3
:103B200061567F4FCE018B559F4F0E94FF1064E37B
:103B30007EE2CE018B559F4F0E94AA1066E57CEC79
:103B40000E9494100E94E102CE018B559F4F0E946B
:103B5000610FCE0181569F4F0E94610F8091F42921
:103B60009091F529019799F58091F2299091F32987
:103B7000892B09F0A0C160E088E00E94190510922D
:103B8000CF2967E57CECCE0181569F4F0E9408113A
:103B9000BE0161567F4FCE018B559F4F0E94FF1093
:103BA00064E37EE2CE018B559F4F0E94AA1066E52A
:103BB0007CEC0E9494100E94E102CE018B559F4F35
:103BC0000E94610FCE0181569F4F0E94610F80912C
:103BD000F4299091F529029789F58091F229909125
:103BE000F32960E0892B09F061E087E00E94190564
:103BF00067E57CECCE0181569F4F0E940811BE0103
:103C000061567F4FCE018B559F4F0E94FF1064E39A
:103C10007EE2CE018B559F4F0E94AA1066E57CEC98
:103C20000E9494100E94E102CE018B559F4F0E948A
:103C3000610FCE0181569F4F0E94610F8091F42940
:103C40009091F5290397A9F58091F2299091F32994
:103C5000892B09F038C160E083E00E94190560E01B
:103C600084E00E94190567E57CECCE0181569F4FE8
:103C70000E940811BE0161567F4FCE018B559F4FA8
:103C80000E94FF1064E37EE2CE018B559F4F0E949D
:103C9000AA1066E57CEC0E9494100E94E102CE011D
:103CA0008B559F4F0E94610FCE0181569F4F0E94FE
:103CB000610F8091F4299091F529049789F58091FD
:103CC000F2299091F32960E0892B09F061E085E009
:103CD0000E94190567E57CECCE0181569F4F0E943A
:103CE0000811BE0161567F4FCE018B559F4F0E9438
:103CF000FF1064E37EE2CE018B559F4F0E94AA1015
:103D000066E57CEC0E9494100E94E102CE018B5586
:103D10009F4F0E94610FCE0181569F4F0E94610FFD
:103D20008091F4299091F529059789F58091F229E0
:103D30009091F32960E0892B09F061E086E00E9410
:103D4000190567E57CECCE0181569F4F0E94081152
:103D5000BE0161567F4FCE018B559F4F0E94FF10D1
:103D600064E37EE2CE018B559F4F0E94AA1066E568
:103D70007CEC0E9494100E94E102CE018B559F4F73
:103D80000E94610FCE0181569F4F0E94610FC101B9
:103D90000E94610FCE0189569F4F0E94610FC09013
:103DA000FA29D090FB29F1E0CF16D10409F0B2C175
:103DB00062E57EE2C1010E94FF1042E050E0B101E5
:103DC000CE0189569F4F0E94AF12C1010E94610F20
:103DD00062E57EE2CE0181569F4F0E94FF1043E0D4
:103DE00050E0BE0161567F4FC1010E94AF12CE016B
:103DF00081569F4F0E94610FCE0189569F4F0E94AE
:103E0000730F8B016093CD297093CE29C1010E945D
:103E1000730F7B016093CB297093CC290F3F110561
:103E200009F070C0672B09F054C060E086E20E9480
:103E3000190560E087E20E94190560E080E00E94B9
:103E4000190560E081E00E94190560E082E00E94AF
:103E500019058FE996E8A1E0B0E08093ED2A9093F0
:103E6000EE2AA093EF2AB093F02A0530110509F04D
:103E7000ADC08091082890910928EF2809F031C140
:103E8000019709F0A3C060E082E00E94190510923A
:103E90000828109209288091ED2A9091EE2AA0918D
:103EA000EF2AB091F02A0896A11DB11D87C081E0CC
:103EB0008093F1292DCE61E088E00E94190581E010
:103EC0008093CF295ECE61E083E00E94190561E016
:103ED000C7CE61E086E20E94190561E087E20E9498
:103EE000190561E080E00E94190561E081E00E940F
:103EF000190561E082E00E94190587E69BE2A0E0D7
:103F0000B0E0ABCF01301105B9F580911028909148
:103F10001128E114F104C1F4019709F0A6CF60E083
:103F200086E20E94190510921028109211288091A3
:103F3000ED2A9091EE2AA091EF2AB091F02A8058B4
:103F4000974CAE4FBF4F89CF892B09F08ECF61E0E0
:103F500086E20E9419050093102810931128809181
:103F6000ED2A9091EE2AA091EF2AB091F02A805884
:103F70009843A140B10971CF0230110511F00C94A2
:103F80005B3580910E2890910F28EF2809F044C0EE
:103F90000197E1F460E087E20E94190510920E2873
:103FA00010920F288091ED2A9091EE2AA091EF2A8D
:103FB000B091F02A805C904EAF4FBF4F8093ED2AB6
:103FC0009093EE2AA093EF2AB093F02AC1010E94A9
:103FD000610FCE0189569F4F0E94610F67E57CEC0F
:103FE00082E59EE20E94DE10CE018F549F4F0E9418
:103FF000610F1092FC291092FD291092FE29109257
:10400000FF291092002A1092012ACE0189549F4F55
:104010000E94610F0C942315892BC1F661E087E2A1
:104020000E941905C0920E28D0920F288091ED2A87
:104030009091EE2AA091EF2AB091F02A80549F41EE
:10404000A109B109BBCF80910C2890910D28EF28D0
:10405000C1F4019709F0BACF60E080E00E94190531
:1040600010920C2810920D288091ED2A9091EE2A42
:10407000A091EF2AB091F02A805E9C4FAF4FBF4FC6
:104080009DCF892B09F0A2CF61E080E00E94190545
:10409000C0920C28D0920D288091ED2A9091EE2AA2
:1040A000A091EF2AB091F02A80529340A109B10962
:1040B00085CF892B09F08ACF61E081E00E94190544
:1040C000C0920A28D0920B288091ED2A9091EE2A76
:1040D000A091EF2AB091F02A80559109A109B10968
:1040E0006DCF892B09F072CF61E082E00E94190543
:1040F00081E090E080930828909309288091ED2A30
:104100009091EE2AA091EF2AB091F02A0897A10988
:10411000B10954CF02E0C016D10409F05FCF62E5C7
:104120007EE2C1010E94FF1042E050E0B101CE01E9
:1041300085559F4F0E94AF12C1010E94610FCE01B1
:1041400085559F4F0E94730F6093C9297093CA29A8
:10415000672B11F40E946A118091C9299091CA2994
:10416000019709F08EC062E57EE2C1010E94FF1056
:1041700043E050E0B101CE0189569F4F0E94AF123B
:10418000C1010E94610F62E57EE2CE0181569F4F20
:104190000E94FF1044E050E0BE0161567F4FC10114
:1041A0000E94AF12CE0181569F4F0E94610FCE0137
:1041B00089569F4F0E94730FC62EE62EF72EE0926F
:1041C000C729F092C829C1010E94730FD62E062F6D
:1041D000172F0093C5291093C6298091C329909168
:1041E000C429E816F90609F05CC38091C1299091B1
:1041F000C2290817190709F054C3109207286C2D1B
:1042000090E080E00E94BF096D2D84E090E00E9464
:10421000BF09E092C329F092C4290093C1291093E9
:10422000C22967E57CECCE0181569F4F0E940811A0
:10423000BE0161567F4FCE018B559F4F0E94FF10EC
:1042400064E37EE2CE018B559F4F0E94AA1066E583
:104250007CEC0E9494100E94E102CE018B559F4F8E
:104260000E94610FCE0181569F4F0E94610F0E94F4
:104270006A11C1010E94610FCE0189569F4F0E94B1
:10428000610F8091C9299091CA29029709F0FFC056
:1042900062E57EE2C1010E94FF1043E050E0B101FF
:1042A000CE0181569F4F0E94AF12C1010E94610F43
:1042B00062E57EE2C1010E94FF1044E050E0B101DE
:1042C000CE0189569F4F0E94AF12C1010E94610F1B
:1042D00062E57EE2CE018B559F4F0E94FF1045E0C4
:1042E00050E0BE016B557F4FC1010E94AF12CE015D
:1042F0008B559F4F0E94610FCE0181569F4F0E94A8
:10430000680F6B017C01CE0189569F4F0E94680F98
:10431000C753DF4F688379838A839B83C95CD0400E
:10432000C1010E94680F2B013C0120E030E040E217
:1043300051E4C701B6010E94A4400E948F42B62EEC
:10434000872EE62EF72E862F982D8093BF299093E7
:10435000C02920E030E040E251E4C753DF4F6881DC
:1043600079818A819B81C95CD0400E94A4400E94CF
:104370008F42C62E972E062F172F862F992D8093AA
:10438000BD299093BE2920E030E040E251E4C30112
:10439000B2010E94A4400E948F42D62EA72E262F43
:1043A000372F862F9A2D8093BB299093BC2980911B
:1043B000B9299091BA29E816F90609F076C28091D8
:1043C000B7299091B8290817190709F06EC2809192
:1043D000B5299091B6292817390709F066C21092BD
:1043E00007286B2D88E090E00E94BF096C2D8CE0BF
:1043F00090E00E94BF096D2D80E190E00E94BF090E
:104400008B2D982D8093B9299093BA298C2D992DB5
:104410008093B7299093B8298D2D9A2D8093B52933
:104420009093B62967E57CECCE018B559F4F0E9497
:104430000811BE016B557F4FCE0183549F4F0E94E0
:10444000FF1064E37EE2CE0183549F4F0E94AA10C6
:1044500066E57CEC0E9494100E94E102CE01835438
:104460009F4F0E94610FCE018B559F4F0E94610F9D
:104470000E946A11C1010E94610FCE0189569F4FAF
:104480000E94610FCE0181569F4F0E94610F809163
:10449000C9299091CA29039709F080C062E57EE29C
:1044A000C1010E94FF1043E050E0B101CE018956E6
:1044B0009F4F0E94AF12C1010E94610F62E57EE230
:1044C000CE0181569F4F0E94FF1044E050E0BE0194
:1044D00061567F4FC1010E94AF12CE0181569F4F9E
:1044E0000E94610F60E47EE2CE0189569F4F0E94D8
:1044F0007E0F882309F4DDC16AE37EE2C1010E94D8
:104500007E0F882309F4D5C110920728BE01695691
:104510007F4F84E190E00E94D809B10189E190E0E9
:104520000E94D809BE0169567F4F80E49EE20E9436
:10453000E810B1018AE39EE20E94E81067E57CEC96
:10454000CE0181569F4F0E940811BE0161567F4FD8
:10455000CE018B559F4F0E94FF1064E37EE2CE0197
:104560008B559F4F0E94AA1066E57CEC0E94941028
:104570000E94E102CE018B559F4F0E94610FCE0138
:1045800081569F4F0E94610F0E946A11C1010E94D3
:10459000610FCE0189569F4F0E94610F8091C929FA
:1045A0009091CA29049709F07FC062E57EE2C101BB
:1045B0000E94FF1043E050E0B101CE0189569F4FA9
:1045C0000E94AF12C1010E94610F62E57EE2CE013E
:1045D00081569F4F0E94FF1044E050E0BE0161569B
:1045E0007F4FC1010E94AF12CE0181569F4F0E94A2
:1045F000610F6CE47EE2CE0189569F4F0E947E0FD0
:10460000882339F066E47EE2C1010E947E0F8111A9
:1046100054C181E080930728BE0169567F4F8FE126
:1046200090E00E94D809B10184E290E00E94D8098C
:10463000BE0169567F4F8CE49EE20E94E810B101F2
:1046400086E49EE20E94E81067E57CECCE0181568C
:104650009F4F0E940811BE0161567F4FCE018B55BE
:104660009F4F0E94FF1064E37EE2CE018B559F4F67
:104670000E94AA1066E57CEC0E9494100E94E10260
:10468000CE018B559F4F0E94610FCE0181569F4FE7
:104690000E94610F0E946A11C1010E94610FCE0148
:1046A00089569F4F0E94610F8091C9299091CA2914
:1046B000059709F0F2C062E57EE2C1010E94FF1099
:1046C00043E050E0B101CE018B559F4F0E94AF12E5
:1046D000C1010E94610F62E57EE2C1010E94FF10EC
:1046E00044E050E0B101CE0181569F4F0E94AF12CD
:1046F000C1010E94610F62E57EE2C1010E94FF10CC
:1047000045E050E0B101CE0189569F4F0E94AF12A3
:10471000C1010E94610F62E57EE2CE0183549F4F8A
:104720000E94FF1046E050E0BE0163547F4FC1017C
:104730000E94AF12CE0183549F4F0E94610FCE01A1
:104740008B559F4F0E94730F662EA62EB72EA092F8
:10475000B329B092B429CE0181569F4F0E94730FA6
:10476000762EC62ED72EC092B129D092B229CE0174
:1047700089569F4F0E94730F862EE62EF72EE092E9
:10478000AF29F092B029C1010E94730F962E062F17
:10479000172F0093AD291093AE298091AB299091EA
:1047A000AC29A816B90609F08BC08091A92990916F
:1047B000AA29C816D90609F083C08091A72990912B
:1047C000A829E816F90609F07BC08091A5299091E7
:1047D000A6290817190709F073C010920728662D3B
:1047E00089E290E00E94BF09672D8DE290E00E946F
:1047F000BF09682D81E390E00E94BF09692D85E320
:1048000090E00E94BF09A092AB29B092AC29C0925F
:10481000A929D092AA29E092A729F092A829009369
:10482000A5291093A62967E57CECCE0183549F4F00
:104830000E940811BE0163547F4FCE018D539F4FDC
:104840000E94FF1064E37EE2CE018D539F4F0E94D1
:10485000AA1066E57CEC0E9494100E94E102CE0151
:104860008D539F4F0E94610FCE0183549F4F0E9432
:10487000610F0E946A11C1010E94610FCE01895629
:104880009F4F0E94610FCE0181569F4F0E94610F82
:10489000CE018B559F4F0E94610FCE0185559F4FD2
:1048A0009BCB81E080930728AACC81E080930728E6
:1048B00098CD81E08093072829CE10920728ACCEAE
:1048C00081E0809307288BCF67E57CEC82E59EE250
:1048D0000E94DE1067E57CECC1010E940811B10165
:1048E000CE0189569F4F0E94FF106EE27EE2CE01FC
:1048F00089569F4F0E94AA1066E57CEC0E94941096
:104900000E94E102CE0189569F4F0E94610FC101B2
:104910006ECBE0917E2EF0917F2E13861586148645
:1049200012861186108617821682158214821382CF
:1049300010927C2E10927D2E4E0117E9810E911C53
:1049400011E0B40180917E2E90917F2E0E947C0C0C
:10495000882309F475C067E0C4010E946007D40190
:1049600017969C9117978913ECCF80917C2E8F5FBF
:1049700080937C2E8C91883231F008F047C08031D2
:1049800011F08232F1F680917D2E8F5F80937D2E23
:104990008091752E811126C080917E2E90917F2E60
:1049A0000E94D00BB40180917E2E90917F2E0E94A8
:1049B000090840E064EB80917E2E90917F2E0E944A
:1049C000D30780917E2E90917F2E0E947707082F2B
:1049D00080917E2E90917F2E0E94D00B011102C0FB
:1049E0001093752EF40180818031D9F0BE016F5F84
:1049F0007F4FC4010E940A0C882331F08D818F33D0
:104A000091F058F48F31C1F080E00EC08B3309F47F
:104A1000BACF823409F095CFB6CF8F3579F08F3782
:104A200099F78CE001C08AE09091782E981708F0F1
:104A300088CF8093782E85CF89E0F6CF8BE0F4CFB6
:104A400080917E2E90917F2E0E94D00B40E06CECE6
:104A500080917E2E90917F2E0E94D3074091752EDB
:104A600064E480917E2E90917F2E0E94D3078091E6
:104A7000792E882321F1E091782E80917A2E882357
:104A800011F40C944E318091752E81110C944E319D
:104A90000E9423076B017C0180917E2E90917F2ED6
:104AA0000E947707813059F00E9423076C197D0915
:104AB0008E099F096E3E72408105910568F3E09171
:104AC0007E2EF0917F2E138615861486128611860F
:104AD000108617821682158214821382B401809187
:104AE0007E2E90917F2E0E947C0C81110C94783147
:104AF00060E070E08EEF92EC6093A1297093A229A0
:104B00008093A3299093A4298EE10E94F005182F89
:104B100081E090E0112311F090E080E08093F12A91
:104B20009093F22A86E10E94F00590E011110C9416
:104B3000CE31892B11F40C94D03182E090E0809337
:104B4000302A9093312A0E9423077B018C0120E0B8
:104B500030E0A901C753DF4F6883C95CD040C6531A
:104B6000DF4FF882CA5CD040C553DF4F8883CB5CEF
:104B7000D040C453DF4F1883CC5CD040C353DF4FC9
:104B80002883CD5CD040C253DF4F3883CE5CD04009
:104B9000C153DF4F4883CF5CD040C053DF4F5883B1
:104BA000C05DD0402091F42A3091F52A4091F62A38
:104BB0005091F72A6091F82A7091F92A8091FA2A87
:104BC0009091FB2A28573C4E4F4F5F4F6F4F7F4FBE
:104BD0008F4F9F4F59016A017B018C01C753DF4FF3
:104BE0002881C95CD040C653DF4F3881CA5CD040B1
:104BF000C553DF4F4881CB5CD040C453DF4F588151
:104C0000CC5CD04060E070E080E090E00E945943CE
:104C100050F12093F42A3093F52A4093F62A5093CA
:104C2000F72A1092F82A1092F92A1092FA2A109272
:104C3000FB2A80913A2890913B2869E470E00E9419
:104C4000CA42072E000C880B990B0E9445406093C6
:104C500036287093372880933828909339281092FB
:104C60003A2810923B2820E030E040E451E4609183
:104C700036287091372880913828909139280E94E1
:104C8000A44060939D2970939E2980939F299093BF
:104C9000A0298091F32A882311F40C94DA314CE393
:104CA00058E265E779E283E69EE20E94D2138091A2
:104CB000502890915128A0915228B0915328809368
:104CC000992990939A29A0939B29B0939C2980912C
:104CD000892990918A29A0918B29B0918C29809360
:104CE000712990937229A0937329B093742981E25A
:104CF0000E94F00521E030E0882311F030E020E050
:104D000020936F29309370298DE10E94F00521E0F6
:104D100030E0882311F030E020E020936D293093BB
:104D20006E298FE10E94F00521E030E0882311F028
:104D300030E020E020936B2930936C2980E20E94C0
:104D4000F00521E030E0882311F030E020E02093EE
:104D5000692930936A298091F029882309F472C265
:104D600060E08CE00E9419050E9423075B016C0142
:104D70002091E8293091E9294091EA295091EB29C5
:104D80006091EC297091ED298091EE299091EF29A5
:104D900028573C4E4F4F5F4F6F4F7F4F8F4F9F4F66
:104DA00029013A01B62FA72FF82FE92F9501A60167
:104DB00060E070E080E090E052016301EB2EFA2E9B
:104DC0000F2F1E2F0E94594329F020F061E08BE045
:104DD0000E9419050E9423075B016C012091E029C4
:104DE0003091E1294091E2295091E3296091E42931
:104DF0007091E5298091E6299091E7292856354C54
:104E00004F4F5F4F6F4F7F4F8F4F9F4F29013A0199
:104E1000B62FA72FF82FE92F9501A60160E070E0CB
:104E200080E090E052016301EB2EFA2E0F2F1E2F2F
:104E30000E94594309F008F405C2C090B428D090EC
:104E4000B52840906028509061286090622870904A
:104E5000632859E2A52EB12C63E0362E2224239438
:104E6000309206062092080680910B0680FFFCCF48
:104E70002091100630911106C6010196F601EE0F41
:104E8000FF1FEC59F74D20833183D12CC12C883280
:104E9000910509F06C01809164289091652820911A
:104EA000662830916728821793072CF4522F432FDE
:104EB0009C01852F942FE8E6F8E2E12CF12C870184
:104EC00041915191CB52DF4F48835983C55DD0400A
:104ED0004217530714F00C94E031A901330F660B0D
:104EE000770BE40EF51E061F171FCB52DF4F2881EC
:104EF0003981C55DD040B8E2E43BFB0709F7C80142
:104F0000B7010E94454020E030E048E152E40E94B1
:104F10001D4220E030E040EA50E40E94A44020E03E
:104F200030EC4FE754E40E941D4220E030E040E6C0
:104F300050E40E94A4402DEC3CEC4CE45EE30E9463
:104F4000B1417B018C0120E030E0A9010E94C54203
:104F50001816A4F420E030E040E85FE3B701C80190
:104F60000E943E4087FF0AC020E030E040E250E46B
:104F7000B701C8010E94B1412B013C0120E030E0A3
:104F800040E85FE3B701C8010E94C5421816A4F4C7
:104F900020E030E040E050E4B701C8010E943E400C
:104FA00087FF0AC020E030E040E250E4B701C801CA
:104FB0000E94B1412B013C0120E030E040E050E490
:104FC000B701C8010E94C5421816A4F420E030E0E1
:104FD00040E450E4B701C8010E943E4087FF0AC088
:104FE00020E030E040E050E4B701C8010E94B14148
:104FF0002B013C0120E030E040E450E4B701C8015F
:105000000E94C5421816A4F420E030E040E850E4C5
:10501000B701C8010E943E4087FF0AC020E030E08F
:1050200040EC5FE3B701C8010E94B1412B013C0194
:1050300020E030E040E850E4B701C8010E94C542DA
:105040001816A4F420E030E040EA50E4B701C801AB
:105050000E943E4087FF0AC020E030E040E85FE366
:10506000B701C8010E94B1412B013C0120E030E0B2
:1050700040EA50E4B701C8010E94C5421816A4F4E2
:1050800020E030E040EC50E4B701C8010E943E400F
:1050900087FF0AC020E030E040E05FE3B701C801CD
:1050A0000E94B1412B013C0120E030E040EC50E493
:1050B000B701C8010E94C5421816A4F420E030E0F0
:1050C00040EE50E4B701C8010E943E4087FF0AC08D
:1050D0002DEC3CEC4CEC5DE3B701C8010E94B14102
:1050E0002B013C0120E030E040EE50E4B701C80164
:1050F0000E94C542181664F420E030E040E051E41C
:10510000B701C8010E943E4087FF02C02701380155
:1051100020E030E040E051E4B701C8010E94C54200
:105120001816A4F420E030E040E151E4B701C801D2
:105130000E943E4087FF0AC020E030E040E05FE38D
:10514000B701C8010E94B0412B013C0120E030E0D2
:1051500040E151E4B701C8010E94C542181654F459
:1051600020E030E040E85FE3B701C8010E94B041B1
:105170002B013C01E1E0AE1AB10809F071CEC092FA
:10518000B428D092B528C201D301809360289093AF
:105190006128A0936228B093632880936529909337
:1051A0006629A0936729B093682901E010E020E008
:1051B00030E040E05FE3B201C3010E943E4087FD62
:1051C00002C010E000E000930C2A10930D2A809199
:1051D0006429882371F0C201D301809360299093E0
:1051E0006129A0936229B093632910920628109236
:1051F00064291092F02981E0809312280E942307ED
:105200008B019C016093D8291093D9298093DA29C6
:105210003093DB291092DC291092DD291092DE29CF
:105220001092DF296093D0291093D1298093D2293D
:105230003093D3291092D4291092D5291092D629CF
:105240001092D72980911228882309F413C160E0B5
:105250008BE00E9419050E9423075B016C012091DD
:10526000D8293091D9294091DA295091DB296091D0
:10527000DC297091DD298091DE299091DF29285762
:105280003C4E4F4F5F4F6F4F7F4F8F4F9F4F2901C6
:105290003A01B62FA72FF82FE92F9501A60160E05C
:1052A00070E080E090E052016301EB2EFA2E0F2FA8
:1052B0001E2F0E94594329F020F061E08CE00E94EB
:1052C00019050E9423075B016C012091D0293091C0
:1052D000D1294091D2295091D3296091D42970913C
:1052E000D5298091D6299091D7292856354C4F4FF2
:1052F0005F4F6F4F7F4F8F4F9F4F29013A01B62F5E
:10530000A72FF82FE92F9501A60160E070E080E05B
:1053100090E052016301EB2EFA2E0F2F1E2F0E94F8
:10532000594309F008F4A6C0FE013196CF0144E0CC
:1053300051E0409306065093080620910B0620FF8B
:10534000FCCF2091100630911106219331938E16D7
:105350009F0679F720910E2A30910F2A40E050E005
:1053600068EC71E4232B41F44091A1295091A229CA
:105370006091A3297091A4290E942701BC01990F73
:10538000880B990B0E94454060935C2970935D29BE
:1053900080935E2990935F290091302A1091312AE1
:1053A000C0905C29D0905D29E0905E29F0905F2943
:1053B000C701B6010E948F4290E080E0643671051B
:1053C0002CF491E080E0012B09F490E090930A2AFC
:1053D00080930B2A80915B29882361F0C092572922
:1053E000D0925829E0925929F0925A291092052812
:1053F00010925B29209153293091542940915529CD
:1054000050915629C701B6010E943E4087FF09C04E
:10541000809151299091522901968093512990931E
:10542000522981E08093F029109212280E942307CC
:105430008B019C016093E8291093E9298093EA2964
:105440003093EB291092EC291092ED291092EE295D
:105450001092EF296093E0291093E1298093E229CB
:105460003093E3291092E4291092E5291092E6295D
:105470001092E7298091F12981110C94A9320E94A0
:105480002307613C744D8140910508F4D0C6E0903B
:105490005329F09054290091552910915629CB5247
:1054A000DF4FE882F9820A831B83C55DD0400091FB
:1054B0005C2910915D2920915E2930915F29C352AA
:1054C000DF4F088319832A833B83CD5DD040A90138
:1054D0009801CB52DF4F688179818A819B81C55DBC
:1054E000D0400E943E4087FD07C08091042A9091E1
:1054F000052A892B09F488C7109251291092522944
:105500001092502940906529509066296090672933
:10551000709068292090502920914C2930914D2974
:1055200040914E2950914F29C301B2010E94C542BA
:1055300018160CF05FC021105DC0809104288823EC
:1055400009F458C08091302A9091312A892B09F4AE
:1055500051C080910C2A90910D2A892B09F04AC0E4
:105560008091062A9091072A892B09F043C08091E7
:105570006F2990917029892BE9F1109215281092CA
:10558000192A60E088E00E94190561E086E00E9427
:1055900019051092042881E080933C29E091322A79
:1055A0007091332A6091342A5091352A4091362ADD
:1055B0003091372A2091382A9091392AE0933D2959
:1055C00070933E2960933F2950934029409341298D
:1055D00030934229209343299093442980934B2967
:1055E00081E090E08093492990934A2961E08CE121
:1055F0000E941905A0903D29B0903E29C0903F29F6
:10560000D0904029E0904129F0904229009143290F
:1056100010914429E091322AF091332AA091342A42
:10562000B091352A9090362A8090372A3090382AC7
:105630002091392AC752DF4F2883C95DD04040915D
:1056400045295091462960914729709148299A012E
:10565000AB0160E070E0CB01C753DF4F2883C95C2A
:10566000D040C653DF4F3883CA5CD040C553DF4FAC
:105670004883CB5CD040C453DF4F5883CC5CD040D0
:10568000C353DF4F6883CD5CD040C253DF4F788374
:10569000CE5CD040C153DF4F8883CF5CD040C05335
:1056A000DF4F9883C05DD04060E070E080E090E024
:1056B0000E9444435F016D01E92CF82C032DC75271
:1056C000DF4F1881C95DD0400E94594309F020F492
:1056D00080913C29811103C0222009F47DC060E043
:1056E00086E00E9419051092492910924A291092C9
:1056F0003C2911E010933B2921104EC061E088E065
:105700000E94190581E090E080931328909314285B
:105710007091322A6091332A5091342A4091352A6F
:105720003091362A2091372A9091382A8091392A4F
:105730007093222A6093232A5093242A4093252A87
:105740003093262A2093272A9093282A8093292A67
:105750007091322A6091332A5091342A4091352A2F
:105760003091362A2091372A9091382A8091392A0F
:1057700070931A2A60931B2A50931C2A40931D2A67
:1057800030931E2A20931F2A9093202A8093212A47
:105790001092192A109315287091322A6091332A99
:1057A0005091342A4091352A3091362A2091372A57
:1057B0009091382A8091392A709333296093342943
:1057C000509335294093362930933729209338292F
:1057D0009093392980933A293090322920913129A8
:1057E000C752DF4F2883C95DD040932C990C99088C
:1057F000A0903329B0903429C0903529D090362913
:10580000E0903729F09038290091392910913A29F0
:10581000B091322AA091332AF091342AE091352AAE
:105820008090362A5091372AC753DF4F5883C95C7E
:10583000D0406091382ACF51DF4F6883C15ED0409D
:105840007091392ACB51DF4F7883C55ED040332D1C
:10585000492D592D692D792D892D992D0E9444436B
:10586000AB2EBA2ECF2EDE2EE82CC753DF4FF8809A
:10587000C95CD040CF51DF4F0881C15ED040CB51D1
:10588000DF4F1881C55ED0400E94594309F020F4D3
:1058900080913B29811102C0222049F081E0809350
:1058A000302910923B2960E08CE10E94190520917B
:1058B0002C2930912D2940912E2950912F29C30157
:1058C000B2010E943E4087FF5FC021105DC0809101
:1058D0000428882309F458C08091302A9091312AF5
:1058E000892B09F451C080910C2A90910D2A892BA3
:1058F00009F04AC08091082A9091092A892B09F061
:1059000043C080916D2990916E29892BE9F1109205
:1059100015281092192A60E088E00E94190561E0BC
:1059200085E00E9419051092042881E080931C29CB
:10593000E091322A7091332A6091342A5091352AAD
:105940004091362A3091372A2091382A9091392A6D
:10595000E0931D2970931E2960931F2950932029DD
:10596000409321293093222920932329909324299D
:1059700080932B2981E090E08093292990932A2914
:1059800061E08CE10E941905A0901D29B0901E29AC
:10599000C0901F29D0902029E0902129F090222941
:1059A00000912329109124295090322A6090332AA3
:1059B0007090342A8090352AB091362AA091372AE7
:1059C000F091382AE091392A209125293091262911
:1059D0004091272950912829BA01AB0160E070E07D
:1059E000CB01C753DF4F2883C95CD040C653DF4F7C
:1059F0003883CA5CD040C553DF4F4883CB5CD0406E
:105A0000C453DF4F5883CC5CD040C353DF4F68830F
:105A1000CD5CD040C253DF4F7883CE5CD040C153C1
:105A2000DF4F8883CF5CD040C053DF4F9883C05D89
:105A3000D04060E070E080E090E00E944443A52CFC
:105A4000B62CC72CD82CEB2EFA2E0F2F1E2F0E940F
:105A5000594309F020F480911C29811103C02220B0
:105A600009F47DC060E085E00E94190510922929A3
:105A700010922A2910921C2911E010931B29211041
:105A80004EC061E088E00E94190581E090E08093BB
:105A90001328909314287091322A6091332A5091E0
:105AA000342A4091352A3091362A2091372A909114
:105AB000382A8091392A7093222A6093232A50939E
:105AC000242A4093252A3093262A2093272A90932C
:105AD000282A8093292A7091322A6091332A509182
