:1000000001C0D8C0112480914000882369F0282FB6
:1000100030E083FD03C02C7F232B31F4809340001C
:100020008CBB80E0AFD0ECC0A895409A489A109263
:10003000E205809182128370813029F58CE590E091
:10004000809328089093290881E080932B0883E00F
:10005000809327081092250880EC8093260888E07A
:1000600091D0079A87E0815089F4A8950DE983E043
:10007000D82E7CD08134F1F479D0182F8CD012385E
:1000800089F480E013C083E790E0DACF179A2EEC72
:1000900036E5A8959091240897FDE8CF21503109C5
:1000A000C1F7E1CF89E0113809F083E058D080E151
:1000B00056D0DFCF823419F484E175D0F8CF85347F
:1000C00011F485E0FACF853531F450D0C82F4ED0E9
:1000D000D82F61D0ECCF863519F484E064D0D1CF2D
:1000E0008436B9F443D042D0182F40D0863479F406
:1000F000D05C3CD0888321961150D9F74CD004BFF6
:10010000D0920010809102108370E1F7D0CFDC5EB6
:10011000F0CF843791F42AD029D0182F27D0F82E89
:100120003AD086E4F81207C0D05C8881219617D0B7
:100130001150D9F7BCCFDC5EF8CF853751F42BD006
:10014000809100110CD08091011109D08091021191
:10015000ADCF813509F0BDCF81E014D0BACF9091F9
:10016000240895FFFCCF80932208089580912408ED
:1001700087FFFCCF909121088091200892FD01C05B
:10018000A89508959091010190FDFCCF98ED94BF42
:10019000809300010895EADF803219F081E0F2DFF8
:1001A000FFCF84E1DCCFCF93C82FE0DFC150E9F768
:1001B000CF91F1CF683048F48DE984BF609300108F
:1001C000809102108370E1F70895FC014083089547
:1001D000FFFFFFFFFFFFFFFFFFFFFFFFFFFFFFFF2F
:1001E000FFFFFFFFFFFFFFFFFFFFFFFFFFFFFFFF1F
:1001F000FFFFFFFFFFFFFFFFFFFFFFFFFFFF000904
:10020000FCC0000022C1000020C100001EC100008F
:100210001CC100001AC100000C94CA3D16C10000A8
:1002200014C1000012C1000010C100000EC1000086
:100230000CC100000AC100000C94EF3D0C94923EEA
:1002400004C100000C94C33C0C949D3CFEC0000013
:100250000C945B3DFAC00000F8C00000F6C000003E
:100260000C94803D0C94E93C0C94773C0C94513CEC
:10027000ECC000000C94113DE8C00000E6C0000096
:10028000E4C00000E2C000000C94A53D0C94363D93
:10029000DCC00000DAC00000D8C00000D6C00000FA
:1002A0004E414E494E495459494E46CDCCCC3D0A5B
:1002B000D7233C17B7D13877CC2B329595E6241F3E
:1002C000B14F0A000020410000C84200401C4620F7
:1002D000BCBE4CCA1B0E5AAEC59D7400407A10F3CA
:1002E0005A00A0724E18090010A5D4E80000E87664
:1002F00048170000E40B54020000CA9A3B000000BB
:10030000E1F505000080969800000040420F0000D3
:1003100000A08601000000102700000000E8030094
:100320000000006400000000000A0000000000015E
:1003300000000000002C76D888DC674F0823DFC15E
:10034000DFAE59E1B1B796E5E3E453C63AE6519919
:100350007696E8E6C28426EB898C9B62ED407C6F42
:10036000FCEFBC9C9F40F2BAA56FA5F490055A2AF9
:10037000F75C936B6CF9676DC11BFCE0E40D47FE05
:10038000F520E6B500D0ED902E03009435770500FA
:1003900080841E080000204E0A000000C80C333381
:1003A00033330F986E12831141EF8D2114893BE690
:1003B0005516CFFEE6DB18D1844B381BF77C1D9019
:1003C0001DA4BBE424203284725E228100C9F12482
:1003D000ECA1E53D27005EBCE2613FDD83C29C7E6F
:1003E00020A3FD1F41009D23BE46DB65F88C11AFA5
:1003F00032CA57E974004A3F6B4211241FBECFEF47
:10040000CDBFDFE3DEBF2EE2A0E2B8E201C01D9265
:10041000AE38B207E1F718E2A0E0B8E2E4EEF9E99D
:1004200002C005900D92A032B107D9F711E0CCEFD0
:10043000D1E004C02197FE010E94504ACB3FD10772
:10044000C9F70E941F400C94594CDACE2F923F926C
:100450004F925F926F927F928F929F92AF92BF92D4
:10046000CF92DF92EF92FF920F931F93CF93DF9380
:10047000CDB7DEB72897CDBFDEBF8C01CB01BA0167
:1004800020E030E048EC51E40E945E4820E53DE881
:1004900047E95CE30E945D4720E030E040E85FE32D
:1004A0000E945F484B015C010B831C8326E43BE206
:1004B00029833A83EB80FC8036E9E30EF11C06E4E5
:1004C0001BE2EB81FC8161917191EB83FC83072E30
:1004D000000C880B990B0E94FE4620E030E040E8BB
:1004E0005AE30E945D4720E030E44CE955E40E9465
:1004F0005D4720E030E04AE754E40E945D4720E099
:1005000030E04DE454E40E94C34820E030E048E489
:1005100053E40E94C348A50194010E94C348F80116
:1005200061937193819391938F012B813C81E216AA
:10053000F30639F66091422B7091432B8091442B46
:100540009091452B26E4222E2BE2322EF1012191AF
:100550003191419151911F010E945F48F2E72F169E
:10056000FCE23F0699F720E030E046E952E40E94C1
:10057000C3482B013C01C0903E2BD0903F2BE09014
:10058000402BF090412B20913C2B30913D2B2B8325
:100590003C8306E41BE2F80181909190A190B19018
:1005A0008F01A5019401C301B2010E949A49181656
:1005B00074F4A5019401C701B6010E945F486B0164
:1005C0007C012B813C812F5F3F4F2B833C83201686
:1005D000310609F7EB81FC81BF01FF0F880B990BF6
:1005E0000E94FE469B01AC01C701B6010E94C348B0
:1005F0006B837C838D839E83C090382BD090392B66
:10060000E0903A2BF0903B2B2091362B3091372BFA
:100610002F8338870EE01CE2E981FA818190919066
:10062000A190B190E983FA83A50194016B817C814B
:100630008D819E810E94F84687FF16C0A501940116
:10064000C301B2010E949A49181674F4A5019401DD
:10065000C701B6010E945F486B017C012F8138857C
:100660002F5F3F4F2F83388789819A810817190799
:1006700099F61092362B1092372B10923C2B109239
:100680003D2B1092422B1092432B1092442B109230
:10069000452B10923E2B10923F2B1092402B109224
:1006A000412B1092382B1092392B10923A2B10922A
:1006B0003B2BEF81F885BF01FF0F880B990B0E9440
:1006C000FE469B01AC01C701B6010E94C34820E071
:1006D00030E04AE754E40E945D476B017C01809161
:1006E0001928811131C081E08093192820E030E081
:1006F00048E453E4C701B6010E949A4918160CF564
:1007000020E030E048EC52E4C701B6010E945E48A8
:100710000E942B49CB012896CDBFDEBFDF91CF9140
:100720001F910F91FF90EF90DF90CF90BF90AF900F
:100730009F908F907F906F905F904F903F902F9001
:100740000895C701B601E4CF8090322B9090332BEF
:10075000A090342BB090352B20E030E048E453E4F7
:10076000C701B6010E949A4918166CF420E030E0E7
:1007700048EC52E4C701B6010E945E48A50194010D
:100780000E945F48C5CFA5019401C701B601F8CF0B
:10079000FB01808100008093C4088091C30887FF1B
:1007A000FCCF8091C408FB01808308958091362896
:1007B0009091372801968093362890933728089592
:1007C000AF92BF92CF92DF92EF92FF920F931F935F
:1007D000CF93DF936C017B018B01040F151FEB019D
:1007E0005E01AE18BF08C017D10759F06991D60154
:1007F000ED91FC910190F081E02DC6010995892BC6
:1008000079F7C501DF91CF911F910F91FF90EF9084
:10081000DF90CF90BF90AF900895FC014481558147
:100820006081718186ED9CE2CBCFFC01A485B5850A
:1008300011968C91119781FD0FC09C9186898F5FD5
:100840008F732789281749F0A689AE0FBF2FB11DD6
:100850005D969C93868B08958C910895FC01508D34
:10086000418D252F30E0842F90E0821B930B54178D
:1008700010F0CF96089501970895FC019689878915
:10088000981761F0A789AE0FBF2FB11D5D968C91AF
:1008900097899F5F9F73978B90E008958FEF9FEFED
:1008A0000895FC0196898789981731F08789E80FA8
:1008B000F11D858D90E008958FEF9FEF0895FC0165
:1008C00096892789892F90E0805C9F4F821B910930
:1008D0008F739927089586ED9CE2F1DF21E0892B43
:1008E00009F420E0822F089583E79DE2E8DF21E00C
:1008F000892B09F420E0822F0895CF93DF93EC0138
:10090000E881F9810680F781E02D0995EC85FD8568
:1009100086818F738683EC85FD8585818F758583C0
:100920008F898E8B1D8ADF91CF910895FC016130F4
:1009300019F4648B81E00895148A6623D9F380E06A
:100940000895DC0154961C92549754968C915497B8
:100950008230A0F4282F30E0F901EE0FFF1FE20FE4
:10096000F31FEA0FFB1F9785961303C09685941714
:1009700049F08F5F54968C935497E7CF54961C920E
:1009800080E0089581E00895CF93DF93FC01908D7E
:10099000818DC485D585981306C08D818F7D8D830B
:1009A000DF91CF910895A18DAE0FBF2FB11DA35A36
:1009B000BF4F2C91818D90E001968F739927818F85
:1009C00080E48C83A485B58512962C93908D818DBF
:1009D0009813E6CFA485B58515968C9115978F7DD4
:1009E00015968C93838D8823D9F2848D809313017F
:1009F000138ED6CFDC011C96ED91FC910FB607FE4D
:100A000003C0258125FD03C0248125FDBDCF0895A8
:100A1000EF92FF920F931F93CF93DF93EC0181E04E
:100A20008D8B988D898D98131CC0AC85BD851496CF
:100A30008C91149785FF15C012966C93AC85BD857B
:100A400080E414968C93EC85FD8585818F7D85836C
:100A500081E090E0DF91CF911F910F91FF90EF9097
:100A600008958091110180FF08C0809113018C8F3F
:100A70008A8D8093130181E08B8FF62E088D10E014
:100A80000F5F1F4F0F731127E02E898D8E1103C04A
:100A9000CE01B0DFFACFE88DEC0FFD2FF11DE35A48
:100AA000FF4FF082088FEC85FD8585818062CFCF76
:100AB000CF93DF93FC0125892223C1F0EC018091C3
:100AC000110180FF08C080911301848F828D809373
:100AD000130181E0838FEC85FD85858185FD03C051
:100AE000848186FD03C0CE0185DFF5CFDF91CF91F4
:100AF000089580E090E0892B21F0F6DE81110E94BC
:100B0000000080E090E0892B21F0E5DE81110E9459
:100B1000000080E090E0892B49F080E090E0892B94
:100B200029F00E94000081110E94000080E090E006
:100B3000892B49F080E090E0892B29F00E94000089
:100B400081110C940000089581E00895CF93DF9304
:100B500090E0FC01E956F64220812F3F69F0FC014C
:100B6000E259F642A08130E2A39FD0011124BC5F7C
:100B7000613029F411962C93DF91CF91089587501D
:100B80009742EC01E881EF3F81F0CD014096E80FFC
:100B9000F92FF11D9FB7F89412962C938081623043
:100BA00039F4886080839FBFE7CFF0E0E0E0F2CFC8
:100BB000877FF8CF1092EC2A1092EB2A1092EF2A3E
:100BC0001092312B8091EE2A81111DC08091E30596
:100BD0008073D1F462E082E0B9DF62E083E0B6DFE7
:100BE00081E08093EE2A1092EA2A1092E92A10926C
:100BF000ED2A1092E82A91EC9093A3089FE190933C
:100C0000A6088093A50808958091E305807380323B
:100C100039F762E080E19ADF62E081E1E0CF90E0C5
:100C2000FC01E053F742E081EE2319F1E13021F0BD
:100C300000F1E630A8F0089587509742FC0120812A
:100C4000233008F02F5F3091010A81E090E001C06D
:100C5000880F2A95EAF7809583238093010A0895E7
:100C600080E1E89FF0011124E05AF54F81818F7EE9
:100C7000818308950F931F93CF93DF93082F10E084
:100C8000F801E956F642D081DF3F99F0C62F89324C
:100C900008F4C5DFF801E259F642E08180E2E89FFE
:100CA000F0011124FC5F80818D2371F0C11106C019
:100CB000D683DF91CF911F910F910895C43011F425
:100CC000D783F7CFD583F5CFD801A750B7428C9102
:100CD000309771F08F3F61F07096E80FF11D9FB76C
:100CE000F8948081C11107C0877F80839FBFE1CFC7
:100CF000F0E0E0E0F4CF8860F8CF893208F4BACFB2
:100D00000895AF92BF92CF92DF92EF92FF920F932E
:100D10001F93CF93DF93EC016A017B01A22E8D8993
:100D2000882339F0E881F9810688F789E02DCE0122
:100D300009950C8910E0BFB6F89460E070E980ED89
:100D400093E0A70196010E94B14969017A018FEFF2
:100D5000C81AD80AE80AF80AF694E794D794C79410
:100D6000EC85FD8586818D7F8683EC85FD8586817A
:100D700086831D8AA09123110A2E000CBB0BA701AC
:100D800096010E94EF4920E034E040E050E00E94EC
:100D9000D349EC85FD85C20ED31EE41EF51EC08628
:100DA000D186EC85FD85A782EC85FD858681806CEA
:100DB0008683EC85FD858581806885839091E20539
:100DC0008B89809589237801EE0CFF1CF701E00FD9
:100DD000F11FEC0FFD1F9089892B8093E20586851A
:100DE000893210F462E0B2DE0E0D1F1DC00FD11F5C
:100DF00061E08F8582DF8F85893210F461E0A6DEA5
:100E0000BFBEDF91CF911F910F91FF90EF90DF90C8
:100E1000CF90BF90AF9008950F931F93CF93082F5B
:100E200010E0F801E956F642C081CF3F71F0F7DEDD
:100E3000F801E259F642E08180E2E89FF0011124D6
:100E4000FC5F8085C82381E009F480E0CF911F9189
:100E50000F9108958330910528F0880F991F04970A
:100E60000197F1F708959F92AF92BF92CF92DF92D0
:100E7000EF92FF920F931F93CF93DF93EC016B01DF
:100E80008885998511E0892B09F010E8F601A0808A
:100E90008A2D8123992493948111912C2C813D8159
:100EA0004E815F8160E271EA87E090E00E94B14983
:100EB000022FB12CE22EF12C002311F0C701CADF62
:100EC0008A858D7F09F04EC08D858F3F89F09A2DE0
:100ED000912381E009F480E0891551F0EF85F889CC
:100EE0008F899923C9F19081892B808399249394C8
:100EF000E989FA898081998D892B8083002311F0FB
:100F0000C701A8DF8E858F3F39F0EB89FC8980818E
:100F1000988D892309F0B12AE989FA899081898D10
:100F20008095892380838E858F3F11F0F601B082F2
:100F300088859985892B09F043C0110F1111BCCF09
:100F4000DF91CF911F910F91FF90EF90DF90CF90A5
:100F5000BF90AF909F900895908180958923808362
:100F6000912CC6CFE989FA898081998D892B80835C
:100F7000002311F0C7016EDF8D858F3F49F0EF85AB
:100F8000F8898F899A2D9123B9F09081892B8083DC
:100F9000E989FA899081898D8095892380838E855E
:100FA0008F3F09F4C0CFEB89FC898081988D89231C
:100FB00009F4B9CFB12AB7CF908180958923E7CFC3
:100FC0001695BCCF2F923F924F925F926F927F9275
:100FD0008F929F92AF92BF92CF92DF92EF92FF9249
:100FE0000F931F93CF93DF93CDB7DEB72897CDBF75
:100FF000DEBF7C016E837F834A835B83B22EA32E88
:101000000C831D83DC01CD90DC901197C114D104B9
:1010100091F01296ED91FC911081B181B887F601A3
:101020008681882319F081FF31C0F8941093C0089D
:10103000B885B093C108F70183858F3F11F060E058
:101040005CDECE80DF806A807B806C0C7D1C6C1443
:101050007D0409F0AFC0CB2CDA2C4C805D804C0CA9
:101060005D1C1FEF4C145D0409F4B8C01983D7014F
:101070008D919C91BE016F5F7F4F009709F4ABC0CB
:1010800087DB8981F60181936F01ECCF80FFCECFA2
:1010900040855185628573851A012B01612C712C65
:1010A0004301E0E09101A201B301C401A0E00E946C
:1010B000304AB1F1217030E040E050E060E070E093
:1010C00080E090E00E94304AF1F090E080E0E03370
:1010D00070F48E2F869586958695B0E28B9FC00121
:1010E0001124805F9B4F2E2F2770820F911DDC01F2
:1010F0004C9196012E0F311DD90150964C93DC0175
:101100002C91287F2C939101A201B301C40101E02D
:101110000E94F74919012A013B014C01EF5FC2CF40
:10112000F60144855585668577851A012B01612C6A
:10113000712C4301E0E29101A201B301C401A0E0DE
:101140000E94304A09F472CF217030E040E050E054
:1011500060E070E080E090E00E94304AF1F090E0C2
:1011600080E0E03370F48E2F869586958695F0E2C8
:101170008F9FC0011124805F9B4F2E2F2770820FFD
:10118000911DDC014C9196012E0F311DD901509615
:101190004C93DC012C91287F2C939101A201B30187
:1011A000C40101E00E94F74919012A013B014C01E9
:1011B000EF5FC1CFD6018D916D018983F7018081E9
:1011C0009181BE016F5F7F4F009711F0E1DA3FCF51
:1011D000C70149DE3CCFC70146DE53CFD7011B967E
:1011E0008C918F3F11F061E088DDD701ED91FC918A
:1011F000309731F08681882319F081FF18C07894E8
:1012000081E02896CDBFDEBFDF91CF911F910F9176
:10121000FF90EF90DF90CF90BF90AF909F908F9016
:101220007F906F905F904F903F902F90089580FF38
:10123000E7CF80849184A284B384C12CD12C760121
:1012400010E09401A501B601C701A0E00E94304A58
:10125000A1F1217030E040E050E060E070E080E01B
:1012600090E00E94304AE1F090E080E0103370F4AA
:10127000812F869586958695B0E28B9FC0011124BB
:10128000805F9B4F212F2770820F911D9F01210F9F
:10129000311DD90150962C91DC013C91232B2C93CC
:1012A0009401A501B601C70101E00E94F749490177
:1012B0005A016B017C011F5FC4CF84849584A6848E
:1012C000B784C12CD12C760110E29401A501B6019E
:1012D000C701A0E00E94304A09F492CF217030E0AB
:1012E00040E050E060E070E080E090E00E94304A32
:1012F000E1F090E080E0103370F4812F86958695C0
:101300008695B0E28B9FC0011124805F9B4F212FF7
:101310002770820F911D9F01210F311DD901509619
:101320002C91DC013C91232B2C939401A501B60157
:10133000C70101E00E94F74949015A016B017C0194
:101340001F5FC3CF8FB7F8942091732A3091742A0E
:101350004091752A5091762AE091AA0AF091AB0A41
:101360009091A60A90FF08C02F5F3F4F4F4F5F4FED
:10137000E091AA0AF091AB0A8FBFA8EEB3E00E94F9
:10138000144823E0F695E7952A95E1F76E0F7F1F45
:10139000811D911D08958F929F92AF92BF92CF921F
:1013A000DF92EF92FF924B015C01CCDF6B017C017D
:1013B000A8EEB3E0A50194010E941448C60ED71E02
:1013C000E81EF91EC616D706E806F90610F4BADFBD
:1013D000F9CFB8DF6C157D058E059F05D0F3FF9022
:1013E000EF90DF90CF90BF90AF909F908F90089537
:1013F0002FB7F8946091732A7091742A8091752A9E
:101400009091762A2FBF0895EF92FF920F931F932A
:10141000CF93DF9390E2899FE0011124DC5FE984A0
:10142000082F000F000F000FFF24F39410E08E2D03
:101430008F2179F0E02FE10FF0E0EE0FFF1FE95868
:10144000F54D80819181892B21F00190F081E02D73
:1014500009951F5FFF0C183051F7E986DF91CF9196
:101460001F910F91FF90EF900895DC0180E0615093
:1014700090F09D919827E92FEF70F0E0EB52FC4F30
:101480002491E92FE295EF70F0E0EB51FC4FE491ED
:10149000822F8E27ECCF0895CF93DF93FC019081AC
:1014A000A181B281F894FD0138978081892B8083D6
:1014B000ED0124972881392F309523232883C2E01A
:1014C000D0E02197F1F7808183238083E0E1F0E091
:1014D0003197F1F78C917894E6E6F0E03197F1F7E7
:1014E000982381E009F480E0DF91CF910895FC0119
:1014F0009081A181B281292F2095FD013497189701
:1015000060FF14C0F8948081822380838C91892BA2
:101510008C93A0E1B0E01197F1F78081982B908334
:1015200078948AE690E00197F1F70895F894808125
:10153000822380838C91892B8C93AEE7B0E0119746
:10154000F1F78081982B9083789486E090E0EBCF40
:10155000DF92EF92FF920F931F93CF93DF93EC01F3
:10156000D62EE42E08E010E0FF24F39461E08D2DE8
:101570008F2109F460E0CE01BADFFF0C01501109A0
:10158000A9F7E11012C0F894E981FA8138979081A7
:101590008881809589238083E981FA8134979081BD
:1015A00088818095892380837894DF91CF911F91E2
:1015B0000F91FF90EF90DF900895EF92FF920F93BD
:1015C0001F93CF93DF938C017B0140E065E5C0DF83
:1015D000E70188E0E80EF11C699140E0C801B8DF3E
:1015E000CE15DF05C9F7DF91CF911F910F91FF90C5
:1015F000EF90089508954F925F926F927F928F922D
:101600009F92AF92BF92CF92DF92EF92FF92B0E0A3
:10161000A0E0BA2FA92F982F882720E130E0C12C15
:1016200040E8D42EEE24EA94F12C812C912C50E841
:10163000A52EB12C40E050E868E970E024013501A6
:10164000482259226A227B2245284628472851F001
:101650002A013B014C205D206E207F2084259525AA
:10166000A625B725B694A79497948794F694E79403
:10167000D794C7947695679557954795215031092A
:10168000E9F6FF90EF90DF90CF90BF90AF909F90E2
:101690008F907F906F905F904F90089508950F9373
:1016A00091E09093ED2A1092E82A60932F2A70938C
:1016B000302A40932E2A20932D2A1092E92A109244
:1016C000EA2A00932C2A880F80932B2A93E024E0A7
:1016D00080912E2A882331F09093EE2A80912B2A34
:1016E0008E7F09C080912D2A882341F02093EE2A15
:1016F00080912B2A81608093A70808C080912E2AB0
:10170000811104C080912D2A882331F38091E82A29
:101710008823E1F38091E82A8330D1F280912D2A49
:10172000882321F08091EA2A0F9108959091E82A68
:1017300081E09130C9F780E0F7CF0F939091EE2AC6
:10174000913099F49091ED2A911111C0082F20E069
:101750004091312B60EF7AE28091302BA0DF109224
:10176000EF2A1092312B0F91089580E0F8CF81E09D
:10177000F6CF1F93CF93DF93EA01122FDC0111966E
:101780008D919C91DC01ED91FC910280F381E02D23
:101790000995C817D90721F4812FCFDF91E0811176
:1017A00090E0892FDF91CF911F910895CF93DF9320
:1017B000EC018B81882381F088818093302B1092FB
:1017C000EF2A1092312B81E0B8DF91E0811190E097
:1017D000892FDF91CF910895EDD981E08B83CE01E0
:1017E000E5DF982F8111E8CFF3CFE0EAF8E09185AB
:1017F0009066918792E09093EE2A8093252A10922A
:10180000242A089581E08093242A1092252A93E0C7
:101810009093AA089091AB0891FF0BC01092292ACF
:10182000F0E0E0E009958093282A85E08093EE2A95
:10183000089510922A2A8093272A86E0F7CF0895E8
:10184000E091EC2A8091EB2AE81730F4F0E0ED5CAF
:10185000F54D808190E008958FEF9FEF089590916E
:10186000EC2A8091EB2A2FEF3FEF981748F4E92FED
:10187000F0E0ED5CF54D208130E09F5F9093EC2A25
:10188000C90108958091EB2A9091EC2A891B990B4C
:101890000895CF92DF92EF92FF920F931F93CF9311
:1018A000DF937C018A01EB016B01C40ED51ECC15C0
:1018B000DD0551F06991D701ED91FC910190F08126
:1018C000E02DC7010995F3CFC801DF91CF911F919A
:1018D0000F91FF90EF90DF90CF9008952091312BE2
:1018E000203440F021E030E0FC012283338390E09B
:1018F00080E008958091EF2AE82FF0E0E051F54D67
:1019000060838F5F8093EF2A8093312B81E090E09A
:10191000089590E080E00895FC01FF2790FD12C03B
:1019200080E094E1E82BF92B60838FB7F8949DE970
:1019300023E094BF209300108FBF8091021081FD9F
:10194000FCCF089580E093E1EDCFCF92DF92EF924C
:10195000FF920F931F93CF93DF938C016B01FB01D9
:10196000E480F5806E2DD8DFD0E0C0E0FF240F5F6B
:101970001F4FCE15DF05B4F4F60184819581C81799
:10198000D90770F480819181009751F08C0F9D1FD1
:10199000FC016081C8018C0F9D1FBEDF2196E9CF3D
:1019A00060E0F8CFDF91CF911F910F91FF90EF9002
:1019B000DF90CF900895FC01FF2790FD06C080E0E6
:1019C00094E1E82BF92B8081089580E093E1F9CF31
:1019D0006091222A7091232A8091202A9091212AB5
:1019E000680F791F80911E2A90911F2A680F791F16
:1019F00080911C2A90911D2A680F791F8091D52A09
:101A00009091D62A680F791F80911A2A90911B2AEB
:101A1000680F791F8091182A9091192A680F791FF1
:101A20008091162A9091172A680F791F8091142AA5
:101A30009091152A680F791F8091122A9091132A8C
:101A4000680F791F8091102A9091112A680F791FD1
:101A5000665F7F4F072E000C880B990B0C94FE4697
:101A60002F923F924F925F926F927F928F929F92AE
:101A7000AF92BF92CF92DF92EF92FF920F931F939C
:101A8000CF93DF93CDB7DEB72697CDBFDEBF2091D2
:101A9000012A3091022A4091032A5091042A609130
:101AA000052A7091062A8091072A9091082AA5E0BC
:101AB0000E941B4A2093012A3093022A4093032A52
:101AC0005093042A6093052A7093062A8093072A6C
:101AD0009093082A8091FF299091002A892B09F47C
:101AE000B0C18091222A9091232A8D839E83892BD5
:101AF00009F0A7C14091FB295091FC296091FD2973
:101B00007091FE29A090F329B090F429C090F52996
:101B1000D090F629E090F729F090F8290091F92962
:101B20001091FA299091012A99838091022A8A833F
:101B30009091032A9B838091042A8C83B091052A7B
:101B4000A091062AF091072AE091082A9A01AB0198
:101B500060E070E080E090E00E94124AA980BA80C4
:101B6000CB80DC80EB2EFA2E0F2F1E2F0E94274AEF
:101B700008F0A9C080911628882309F4A4C060E069
:101B800088E078D810921728109218287091012AAE
:101B90006091022A5091032A4091042A3091052A2B
:101BA0002091062A9091072A8091082A7093EB29A8
:101BB0006093EC295093ED294093EE293093EF295F
:101BC0002093F0299093F1298093F22910921628FE
:101BD00081E08093EA292091012A3091022A4091E4
:101BE000032A5091042A6091052A7091062A809157
:101BF000072A9091082AA7E20E94304A09F008F4C7
:101C00004CC081E08093DA298091102A9091112AAA
:101C1000892BE9F58091202A9091212A892BB9F509
:101C20008091222A9091232A892B89F580911E2A5E
:101C300090911F2A892B59F580911C2A90911D2A79
:101C4000892B29F58091D52A9091D62A892BF9F4F0
:101C500080911A2A90911B2A892BC9F48091182A05
:101C60009091192A892B99F48091142A9091152A20
:101C7000892B69F48091122A9091132A892B39F4C7
:101C80008091162A9091172A892B09F4E3C081E0EC
:101C900090E08093E62A9093E72A2696CDBFDEBF98
:101CA000DF91CF911F910F91FF90EF90DF90CF9038
:101CB000BF90AF909F908F907F906F905F904F906C
:101CC0003F902F9008954091E6295091E729609127
:101CD000E8297091E929A090EB29B090EC29C090F7
:101CE000ED29D090EE29E090EF29F090F0290091B5
:101CF000F1291091F2299091012A99838091022A69
:101D00008A839091032A9B838091042A8C83B091CB
:101D1000052AA091062AF091072AE091082A9A0143
:101D2000AB0160E070E080E090E00E94124AA98080
:101D3000BA80CB80DC80EB2EFA2E0F2F1E2F0E9454
:101D4000274A08F048CF8091EA29882309F443CF35
:101D50008091DF299091E029892B09F464C080915A
:101D6000172890911828892B09F05DC020E030E0F9
:101D700040E85FE36091DB297091DC298091DD29E7
:101D80009091DE290E945F489B01AC016091E2299D
:101D90007091E3298091E4299091E5290E945E48A1
:101DA00020E030E040E050E40E949A4918160CF020
:101DB00041C01092D8291092D9298D819E8180939B
:101DC0001E2A90931F2A61E088E00E943A0681E073
:101DD00090E080931728909318287091012A6091C1
:101DE000022A5091032A4091042A3091052A209119
:101DF000062A9091072A8091082A7093F32960930C
:101E0000F4295093F5294093F6293093F72920932C
:101E1000F8299093F9298093FA291092EA2981E010
:101E200080931628D8CE8091D8299091D9298D8376
:101E30009E83C3CF81E090E08093D8299093D929E5
:101E4000F6CF60E088E00E943A06109217281092C0
:101E50001828C1CE1092E62A1092E72A1ECFDC0184
:101E6000ED91FC910488F589E02D23E030E00994A0
:101E7000CF93DF93FC019081A181B281F894FD01A1
:101E800038978081292F20958223808378943DE79D
:101E9000315031F18C918923D9F3F894ED012497D5
:101EA0008881822388838081892B80837894CCEBFE
:101EB000D3E02197F1F7F894808182238083E8E8CA
:101EC000F0E03197F1F78C91982381E009F080E000
:101ED0007894E0E3F3E03197F1F7DF91CF91089543
:101EE00080E0FBCF6F927F928F929F92AF92BF92D2
:101EF000CF92DF92EF92FF920F931F93CF93DF93D6
:101F00008C01EB0180916C2E90916D2EB1DF8823B6
:101F100009F43BC0B80180916C2E90916D2E4DDB81
:101F200040E06EEB80916C2E90916D2E11DB7E0166
:101F30006E0189E0C80ED11C8E01A0906C2EB0906D
:101F40006D2E88E0882E912C712C66246394C50137
:101F5000A3DA81117628660CE1E08E1A9108B9F7B0
:101F6000F80171928F01CE16DF0639F780916C2E41
:101F700090916D2E7DDF813041F4F70181917F01D9
:101F8000811105C0E017F107C1F790E007C068E0D4
:101F9000CE016BDA91E028852813F7CF892FDF91E6
:101FA000CF911F910F91FF90EF90DF90CF90BF9056
:101FB000AF909F908F907F906F900895BF92CF9237
:101FC000DF92EF92FF920F931F93CF93DF93EC0179
:101FD000B62EC72E8D85811104C0CE0149DF811137
:101FE0000EC01B861D861C8680E0DF91CF911F915D
:101FF0000F91FF90EF90DF90CF90BF90089540E059
:1020000060EFCE01A5DA01E0E12CD12C11E0CE0188
:1020100043DAF82ECE0140DA91E0F91218C081308F
:1020200099F51134F0F2DB86D11002C081E08D8782
:102030008B818823B1F22396EB2DFC2DCF010896DE
:1020400029912193E817F907D9F781E0CECFEE2D3A
:10205000F0E0F8120FC08B851817A0F4DE01AE0F68
:10206000BF1F13968C91802379F4F12C193008F45A
:102070001C87D12EEC0FFD1F8381902F9095892313
:1020800083830AC08113F1CFFE01EE0DF11D838120
:10209000802B8383FF24F3946F2DCE0128DA1F5FFA
:1020A000000F11F4E39401E087E08E1508F0AFCF44
:1020B000B8CF3F924F925F926F927F928F929F9292
:1020C000AF92BF92CF92DF92EF92FF920F931F9346
:1020D000CF93DF9300D0CDB7DEB7FC013B01042FD7
:1020E0009681878199838A83A080B180A114B104ED
:1020F00009F48DC0418550E0D50114968D919C91D5
:1021000084179507B0F4312C832D0F900F90DF9139
:10211000CF911F910F91FF90EF90DF90CF90BF90E4
:10212000AF909F908F907F906F905F904F903F9077
:102130000895F50180818093302B1092EF2A109240
:10214000312B20E0BE016F5F7F4FC50112DB382EBF
:102150008823C9F2E02EF12C912C812CD501149604
:102160008D919C916701C818D9088C159D0508F4BC
:102170006C01F501808123E33AE22093312A309308
:10218000322A9091EE2A9130B9F59091ED2A911171
:1021900035C001E097012C193D098216930608F419
:1021A00000E02C2D31E4C316D10408F020E440E017
:1021B00070E060E074DA1092EC2A8093EB2A8C15C0
:1021C0001D0409F0A0CF8301080D191D2801C201CB
:1021D000801B910B8C159D0598F4D50111968D915E
:1021E0009C91DC01ED91FC910284F385E02D099531
:1021F000F20181932F01EBCF80E0DDCF81E0DBCFD7
:102200008C0C9D1C8E149F0408F4A8CF7DCFA28156
:10221000B381109709F477CF2481358110E041858F
:1022200050E02330310571F4816089839A834F5FD8
:102230005F4F9301BE016F5F7F4FCD010E94E207A8
:10224000382E62CF2115310519F490689983F1CFAA
:102250002230310511F49F77F9CF2130310549F74C
:10226000906CF4CF0C94F24ACF93DF93EC01888109
:102270009981009711F00E94F24A188219821C82FB
:102280001D821A821B82DF91CF910895FC0180810B
:1022900091810C94F24A0C94F24AFC018081918164
:1022A000009711F00C94BF4260E070E0CB010895FC
:1022B000FC0180819181009711F00C94C24260E092
:1022C00070E0CB010895FC0124813581FB0144813C
:1022D000558124173507E1F4FC0180819181FB01D0
:1022E000608171810097D1F061157105A1F4232BF4
:1022F000C1F0FC01808190E008C0232B91F0FB012C
:10230000808190E091958195910921E0892B09F0D8
:1023100020E0822F08950E943A4CF7CF6115710595
:1023200061F721E0F6CF0F931F93CF93DF93EC017A
:1023300088819981009759F02A813B8126173707B8
:1023400030F081E0DF91CF911F910F9108958B01C3
:102350006F5F7F4F0E947B4B009759F08883998372
:102360000A831B832C813D81232B59F7FC011082AA
:10237000E8CF80E0E7CFEF92FF920F931F93CF93C8
:10238000DF936115710541F480E0DF91CF911F91DA
:102390000F91FF90EF90089541155105A9F07B0131
:1023A000EC010C811D81040F151FB801BCDF8823CF
:1023B00059F3288139818C819D81B701820F931F48
:1023C0000E94434C0C831D8381E0DFCFEF92FF928C
:1023D0000F931F93CF93DF93CDB7DEB76497CDBF35
:1023E000DEBF7C01CB01BA018E010F5F1F4F22E0DF
:1023F00044E00E94A242FC0101900020E9F73197DD
:10240000AF01481B590BBC01C701B5DF811102C0E8
:10241000C7012ADFC7016496CDBFDEBFDF91CF9130
:102420001F910F91FF90EF900895EF92FF920F93FD
:102430001F93CF93DF93CDB7DEB72D97CDBFDEBF10
:102440007C01CB01BA012AE08E010F5F1F4FA8016A
:102450000E941543F80101900020E9F73197AF0180
:10246000401B510BB801C70186DF811102C0C701B3
:10247000FBDEC7012D96CDBFDEBFDF91CF911F914F
:102480000F91FF90EF900895EF92FF920F931F939B
:10249000CF93DF93CDB7DEB72897CDBFDEBF7C01EA
:1024A000CB014AE08E010F5F1F4FB8010E94E84246
:1024B000F80101900020E9F73197AF01401B510B63
:1024C000B801C70158DF811102C0C701CDDEC701C5
:1024D0002896CDBFDEBFDF91CF911F910F91FF9066
:1024E000EF900895CF93DF93EC01FB010190002062
:1024F000E9F73197AF01461B570B3DDF811102C051
:10250000CE01B2DECE01DF91CF910895CF93DF935C
:10251000EC01FB0144815581608171812CDF8111C7
:1025200002C0CE01A1DECE01DF91CF910895EF92DE
:10253000FF920F931F93CF93DF93EC017B018A01EE
:10254000BA01F1DE81110AC0CE018EDECE01DF912B
:10255000CF911F910F91FF90EF9008950C831D83F1
:10256000B701888199810E94434CF0CFFB01019013
:102570000020E9F73197AF01461B570BD8CFEF92F8
:10258000FF920F931F93CF93DF93CDB7DEB7A19741
:10259000CDBFDEBF7C01CB01BA01F70110821182F1
:1025A00012821382148215828E010F5F1F4F22E068
:1025B00044E00E94A242009769F0BC01C701D6DF47
:1025C000A196CDBFDEBFDF91CF911F910F91FF90FC
:1025D000EF900895C70148DEF3CFCF93DF93EC016E
:1025E000FB018617970741F06081718161157105C4
:1025F00039F0448155819BDFCE01DF91CF91089561
:1026000033DEFACFFC01108211821282138214820F
:102610001582E3CFFC011082118212821382148290
:102620001582FB0101900020E9F73197AF01461BAD
:10263000570B7DCF6F927F928F929F92AF92BF92F6
:10264000CF92DF92EF92FF920F931F93CF93DF937E
:10265000CDB7DEB74C015B016DB67EB6CB01ABD911
:10266000082F10E0C80101962DB73EB7281B390B83
:102670002DBF3EBF8DB79EB701966C0175015C0101
:102680009FEFE91AF90AC5018C199D098017910776
:1026900034F4C70190D9F50181935F01F1CFF601C0
:1026A000E00FF11F1082B601C401B4DFC4016DBE9A
:1026B0007EBEDF91CF911F910F91FF90EF90DF9041
:1026C000CF90BF90AF909F908F907F906F90089524
:1026D0001F93CF93DF93CDB7DEB7A497CDBFDEBFF7
:1026E0008AE390E068D9682F70E090E080E00E9473
:1026F000FC466093B4287093B5288093B6289093D5
:10270000B72888E490E057D9682F70E090E080E027
:102710000E94FC4660939B2870939C2880939D2880
:1027200090939E2890E080E046D91CE3819FC001F1
:102730001124092E000CAA0BBB0B8093E629909361
:10274000E729A093E829B093E92984E090E033D900
:10275000819FC0011124092E000CAA0BBB0B809392
:10276000FB299093FC29A093FD29B093FE29109298
:10277000EB291092EC291092ED291092EE2910927B
:10278000EF291092F0291092F1291092F22910925B
:10279000F3291092F4291092F5291092F62910923B
:1027A000F7291092F8291092F9291092FA298DE24E
:1027B00090E001D990E0B0E0A0E08093F5289093FC
:1027C000F628A093F728B093F82881E390E0F3D897
:1027D00090E0B0E0A0E08093D5289093D628A09315
:1027E000D728B093D82885E390E0E5D8819FC00131
:1027F00011248093E1289093E22889E290E0DBD8CD
:1028000090E0B0E0A0E080932E2890932F28A09332
:102810003028B093312885E390E0CDD8819FC00166
:10282000112480938728909388288CE090E0C3D867
:10283000682F70E090E080E00E94FE462DEC3CECBA
:102840004CEC5DE30E945D47609300297093012981
:10285000809302299093032988E090E0ACD8682FF8
:1028600070E090E080E00E94FE462DEC3CEC4CECE9
:102870005DE30E945D476093DC287093DD288093C0
:10288000DE289093DF2880E190E095D8682F70E0F3
:1028900090E080E00E94FE462DEC3CEC4CEC5DE3C9
:1028A0000E945D476093FC287093FD288093FE286A
:1028B0009093FF2864E170E0CE010196BBDECE016B
:1028C0000196F6DC072E000C880B990B0E94FE4641
:1028D00060930B2970930C2980930D2990930E29F6
:1028E00069E170E0CE010796A5DECE010796E0DC37
:1028F000072E000C880B990B0E94FE466093072957
:10290000709308298093092990930A296FE170E058
:10291000CE010D968FDE64E270E0CE0143968ADE32
:10292000CE010D96BADC60932A2870932B288093F1
:102930002C2890932D28CE014396AFDC60938228FB
:102940007093832880938428909385286CE670E0A8
:10295000CE0149966FDECE0149969FDC60935C28DC
:1029600070935D2880935E2890935F2862E570E005
:10297000CE014F965FDECE014F968FDC6093322BF7
:102980007093332B8093342B9093352BCE014F963D
:102990007DDCCE0149967ADCCE01439677DCCE0110
:1029A0000D9674DCCE01079671DCCE0101966EDCCB
:1029B000A496CDBFDEBFDF91CF911F9108958F9276
:1029C0009F92AF92BF92CF92DF92EF92FF920F93BE
:1029D0001F93CF93DF93EC018B01FB01C480D58063
:1029E000D60111972FEF3FEFB12CA12C90E080E0A2
:1029F00070E060E0A817B9072CF1461757072CF1D3
:102A0000FC0131967F018C159D0560F4F8018080F2
:102A100091808114910431F0F401E80FF91FE081F5
:102A2000EC3219F0A817B90759F46F5F7F4F5901BD
:102A3000FFEFAF1ABF0A9701A817B90709F09C0169
:102A4000C701D8CF46175707D4F569012A153B05AA
:102A500010F06501590163EE79EDCE01DBDDF8017F
:102A6000E480F580CE14DF04D0F4AE14BF0408F483
:102A70007501F80160817181FB01EE0DFF1DB080D1
:102A800010826C0D7D1DCE0161157105B1F06EDDFA
:102A9000F80180819181E80EF91EF701B082CE0124
:102AA000DF91CF911F910F91FF90EF90DF90CF902A
:102AB000BF90AF909F908F900895D6DBE9CF63EEE3
:102AC00079EDCE01A7DDEBCF2F923F924F925F922F
:102AD0006F927F928F929F92AF92BF92CF92DF922E
:102AE000EF92FF920F931F93CF93DF93CDB7DEB793
:102AF0006897CDBFDEBF80910E2A90910F2A8D87F7
:102B00009E8740900A2A50900B2A60900C2A709061
:102B10000D2A8091102A9091112A8F87988B80918D
:102B2000122A9091132A898B9A8B8091142A909162
:102B3000152A8B8B9C8B8091162A9091172A8D8B4E
:102B40009E8B8091182A9091192A8F8B988F2090B4
:102B50001A2A30901B2A8090D52A9090D62A00916C
:102B60001C2A10911D2AE0901E2AF0901F2AC09066
:102B7000202AD090212AA090222AB090232A63EE06
:102B800079EDCE01019646DDBE016F5F7F4FCE012C
:102B9000079638DDB501CE01079676DC60EC79ED5D
:102BA000A1DCB60171DC60EC79ED9CDCB7016CDC7A
:102BB00060EC79ED97DCB80167DC60EC79ED92DCD4
:102BC000B40162DC60EC79ED8DDCB1015DDC60ECC0
:102BD00079ED88DC6F89788D57DC60EC79ED82DCEB
:102BE0006D897E8951DC60EC79ED7CDC6B897C89B8
:102BF0004BDC60EC79ED76DC69897A8945DC60EC48
:102C000079ED70DC6F8578893FDC60EC79ED6ADC0A
:102C1000B301A201DBDB60EC79ED64DC6D857E85C0
:102C200033DC62EE79ED5EDC0E940D04CE01079686
:102C30002DDBCE0101962ADB6896CDBFDEBFDF918A
:102C4000CF911F910F91FF90EF90DF90CF90BF90A9
:102C5000AF909F908F907F906F905F904F903F903C
:102C60002F9008958F929F92AF92BF92EF92FF9212
:102C70000F931F93CF93DF93CDB7DEB72C97CDBFC4
:102C8000DEBFE0900E2AF0900F2A80900A2A9090E2
:102C90000B2AA0900C2AB0900D2A0091092A10E06E
:102CA00063EE79EDCE010196B5DCBE016F5F7F4F1B
:102CB000CE010796A7DCB801CE010796E5DB60ECF4
:102CC00079ED10DCB501A40181DB60EC79ED0ADC63
:102CD000B701DADB62EE79ED05DC0E940D04CE016E
:102CE0000796D4DACE010196D1DA2C96CDBFDEBF9D
:102CF000DF91CF911F910F91FF90EF90BF90AF9018
:102D00009F908F9008950F931F93CF93DF938C0123
:102D1000EB0188E2FB0111928A95E9F74BE050E064
:102D200062EC79EDCE010E944A4C1B8681E090E076
:102D3000A0E0B0E08C879D87AE87BF87F8018381D4
:102D40009481092E000CAA0BBB0B888B998BAA8B44
:102D5000BB8B8DE090E0A0E0B0E08C8B9D8BAE8BC8
:102D6000BF8B1CA21DA21EA21FA280E090E0A0E2C9
:102D7000B2EC8C8F9D8FAE8FBF8F80E090E0AAEA7F
:102D8000B2E4888F998FAA8FBB8F8AE999E9A9E964
:102D9000BEE388A399A3AAA3BBA3DF91CF911F9100
:102DA0000F9108950F931F93CF93DF938C01EB0145
:102DB00088E2FB0111928A95E9F74BE050E06BEC59
:102DC00079EDCE010E944A4C1B8681E090E0A0E0A4
:102DD000B0E08C879D87AE87BF87F801838194819F
:102DE000092E000CAA0BBB0B888B998BAA8BBB8B73
:102DF0008CE090E0A0E0B0E08C8B9D8BAE8BBF8B25
:102E00001CA21DA21EA21FA21C8E1D8E1E8E1F8E16
:102E100080E090E0A8ECB2E4888F998FAA8FBB8FF6
:102E200080E090E0A0E0B0E488A399A3AAA3BBA3AC
:102E3000DF91CF911F910F9108954F925F926F9202
:102E40007F929F92AF92BF92CF92DF92EF92FF92CA
:102E50000F931F93CF93DF93CDB7DEB76A97CDBFA4
:102E6000DEBF8C017B016A010E94F8092B013C0145
:102E700080E48A8FD8011C968D919C91FC0124815D
:102E80003581232BA9F4912C892D6A96CDBFDEBF05
:102E9000DF91CF911F910F91FF90EF90DF90CF9036
:102EA000BF90AF909F907F906F905F904F900895EC
:102EB00020812093302B1092EF2A1092312B21E0A9
:102EC00041E050E0BE01665E7F4F0E94B90B88234F
:102ED000D1F264E170E080E090E00E94CB09F8015B
:102EE00084859585188A198A1A8A1B8A89839A8308
:102EF0001B821C8281E08A871F8218861B8686E0DF
:102F0000898746E0BE016C5E7F4FCE010196D1D825
:102F1000982E882309F4B7CFAC88BD88BA24AB2497
:102F2000BA24C5010E94FB0A9E899813ACCFB50153
:102F300090E080E00E94FC4620E03FEF4FE757E43E
:102F40000E94C34820E030E045E253E40E945D4720
:102F500020E030E040E252E40E945E48D8016D93E8
:102F60007D938D939C931397AF88B88CBA24AB2430
:102F7000BA24C5010E94FB0A998D981385CFB5012B
:102F800090E080E00E94FC4620E03FEF4FE757E4EE
:102F90000E94C34820E030E048EC52E40E945D47C4
:102FA000F8016483758386839783C114D10481F10A
:102FB000F601349680E2DF011D928A95E9F784E2FA
:102FC00090E0A0E0B0E0F60180839183A283B38318
:102FD000D8011A968D919C91B0E0A0E084839583EE
:102FE000A683B7838DE090E0A0E0B0E08087918772
:102FF000A287B387408A518A628A738AF8018081E6
:103000009181A281B381F601848B958BA68BB78BBE
:10301000E114F10409F438CFF701349680E2DF01BE
:103020001D928A95E9F784E290E0A0E0B0E0F70114
:1030300080839183A283B383D80118968D919C914C
:10304000B0E0A0E084839583A683B7838DE090E011
:10305000A0E0B0E080879187A287B387408A518A39
:10306000628A738AF80184819581A681B781F7010C
:10307000848B958BA68BB78B07CFAB0170E060E09C
:10308000FC0185819681D9DE81E0089550E040E021
:10309000FC0185819681D1DE81E008952F923F92D7
:1030A0004F925F926F927F928F929F92AF92BF9258
:1030B000CF92DF92EF92FF920F931F93CF93DF9304
:1030C000CDB7DEB7CA50D140CDBFDEBFA8958E01C7
:1030D0000F5F1F4F180186ED9CE20E945F04CF52E4
:1030E000DF4F88839983C15DD040892B11F40C9404
:1030F000A82A86ED9CE20E943D048C0189831A82F5
:1031000041E050E0B10180E49EE235D90A3011057A
:1031100011F72091442E3091452E2093D6293093DB
:10312000D7296091402E7091412E4091D429509121
:10313000D52990E080E082179307CCF14093D42901
:103140005093D52910E000E0E090D429F090D529E3
:1031500060E47EE20E151F050CF03DC0CE018956DD
:103160009F4F50DAA801BE0169567F4FC10127DC8D
:10317000CE0189569F4F8AD8C1018FD89B01AC01DF
:103180006091D0297091D1298091D2299091D32931
:103190000E945F486093D0297093D1298093D229EF
:1031A0009093D329C10172D80F5F1F4FCDCF8217E3
:1031B000930730F4FB01E80FF91F6115710521F445
:1031C00010922928E9E2F8E2E081EC3211F44F5F35
:1031D0005F4F0196B0CFC10115DAA701B101CE0151
:1031E00089549F4FECDBC10151D8CE0189549F4FC8
:1031F00054D86B017C0120E030E040E251E4609162
:10320000D0297091D1298091D2299091D3290E94FF
:103210005F48A70196010E94F84681110C94832A09
:1032200060E47EE2C101EED941E050E0B101CE019F
:103230008F549F4FC4DBC10129D8CE018F549F4FBB
:1032400037D860930E2A70930F2A6B30710509F0FE
:103250005FC30091FF291091002A4090DB29509014
:10326000DC296090DD297090DE2920915929309168
:103270005A2940915B2950915C29C753DF4F28831D
:1032800039834A835B83C95CD0404091E2295091E5
:10329000E3296091E4297091E529CF52DF4F4883FB
:1032A00059836A837B83C15DD040609131297091DD
:1032B00032298091332990913429CB52DF4F688392
:1032C00079838A839B83C55DD04080912529909125
:1032D0002629A0912729B0912829CF51DF4F888333
:1032E0009983AA83BB83C15ED04020911829309175
:1032F000192940911A2950911B29C352DF4F288365
:1033000039834A835B83CD5DD040E0902F29F090D4
:103310003029CB51DF4FE882F982C55ED040E09082
:103320002D29F0902E29C751DF4FE882F982C95E1E
:10333000D040E0902B29F0902C29C351DF4FE88238
:10334000F982CD5ED040E0902929F0902A29CF5013
:10335000DF4FE882F982C15FD040E0901328F090FF
:103360001428CB50DF4FE882F982C55FD0408090AF
:10337000D72A9090D82AA090D92AB090DA2AE09043
:103380001728F0901828CF5FDE4FE882F982C150ED
:10339000D140E090DF29F090E029C750DF4FE8826C
:1033A000F982C95FD040E090C028F090C128C35096
:1033B000DF4FE882F982CD5FD040E090A828F090FE
:1033C000A928CD5FDE4FE882F982C350D140E0905A
:1033D000D928F090DA28CB5FDE4FE882F982C55019
:1033E000D140E090F928F090FA28C95FDE4FE882DA
:1033F000F982C750D140E090E62AF090E72AC75FF3
:10340000DE4FE882F982C950D140B801012E000C8C
:10341000880B990B0E94FE46A30192010E945F480F
:10342000C753DF4F288139814A815B81C95CD04015
:103430000E945F48CF52DF4F288139814A815B81EA
:10344000C15DD0400E945F48CB52DF4F2881398157
:103450004A815B81C55DD0400E945F48CF51DF4FFC
:10346000288139814A815B81C15ED0400E945F48DA
:10347000C352DF4F288139814A815B81CD5DD040C5
:103480000E945F486B017C01CB51DF4F288139815D
:10349000C55ED040B901330F880B990B0E94FE46E0
:1034A0009B01AC01C701B6010E945F486B017C0122
:1034B000C751DF4F48815981C95ED040BA01550FCD
:1034C000880B990B0E94FE469B01AC01C701B60117
:1034D0000E945F486B017C01C351DF4FA881B98115
:1034E000CD5ED040BD01BB0F880B990B0E94FE46FC
:1034F0009B01AC01C701B6010E945F486B017C01D2
:10350000CF50DF4FE881F981C15FD040BF01FF0F8D
:10351000880B990B0E94FE469B01AC01C701B601C6
:103520000E945F486B017C01CB50DF4F28813981BD
:10353000C55FD040B901330F880B990B0E94FE463E
:103540009B01AC01C701B6010E945F486B017C0181
:10355000C501B4010E94FE469B01AC01C701B60142
:103560000E945F486B017C01CF5FDE4F488159812B
:10357000C150D140BA01550F880B990B0E94FE46ED
:103580009B01AC01C701B6010E945F486B017C0141
:10359000C750DF4FA881B981C95FD040BD01BB0FC3
:1035A000880B990B0E94FE469B01AC01C701B60136
:1035B0000E945F486B017C01C350DF4FE881F981B5
:1035C000CD5FD040BF01FF0F880B990B0E94FE46D4
:1035D0009B01AC01C701B6010E945F486B017C01F1
:1035E000CD5FDE4F28813981C350D140B901330FFF
:1035F000880B990B0E94FE469B01AC01C701B601E6
:103600000E945F486B017C01CB5FDE4F488159818E
:10361000C550D140BA01550F880B990B0E94FE4648
:103620009B01AC01C701B6010E945F486B017C01A0
:10363000C95FDE4FA881B981C750D140BD01BB0F22
:10364000880B990B0E94FE469B01AC01C701B60195
:103650000E945F486B017C01C75FDE4FE881F98102
:10366000C950D140BF01FF0F880B990B0E94FE4645
:103670009B01AC01C701B6010E945F4820E030E029
:1036800040E251E40E945F486B017C01C0920A2A2B
:10369000D0920B2AE0920C2AF0920D2A2091172842
:1036A00030911828CF5FDE4F28833983C150D14035
:1036B00063EE79EDCE0181569F4F0E940A13BE0141
:1036C00061567F4FCE0189569F4F0E940213B3016E
:1036D000A201CE0189569F4F0E94E61160EC79ED60
:1036E0000E947212B8010E94441260EC79ED0E94AF
:1036F0007212C753DF4F488159816A817B81C95C4F
:10370000D0400E94E61160EC79ED0E947212CF5217
:10371000DF4F488159816A817B81C15DD0400E9421
:10372000E61160EC79ED0E947212CB52DF4F4881B6
:1037300059816A817B81C55DD0400E94E61160ECB1
:1037400079ED0E947212CF51DF4F488159816A8111
:103750007B81C15ED0400E94E61160EC79ED0E9451
:103760007212C352DF4F488159816A817B81CD5DDE
:10377000D0400E94E61160EC79ED0E947212CB51AC
:10378000DF4F68817981C55ED0400E94441260ECB1
:1037900079ED0E947212C751DF4F68817981C95E4D
:1037A000D0400E94441260EC79ED0E947212C35125
:1037B000DF4F68817981CD5ED0400E94441260EC79
:1037C00079ED0E947212CF50DF4F68817981C15F1D
:1037D000D0400E94441260EC79ED0E947212CB50EE
:1037E000DF4F68817981C55FD0400E94441260EC50
:1037F00079ED0E9472128C012AE0A101C501B40189
:103800000E94F242F10101900020E9F73197AF01E7
:1038100042195309B101C8010E94BB11811103C0B3
:10382000C8010E94341160EC79EDC8010E94721247
:10383000CF5FDE4F68817981C150D1400E94441230
:1038400060EC79ED0E947212C750DF4F6881798178
:10385000C95FD0400E94441260EC79ED0E94721260
:10386000C350DF4F68817981CD5FD0400E94441200
:1038700060EC79ED0E947212CD5FDE4F6881798134
:10388000C350D1400E94441260EC79ED0E94721244
:10389000CB5FDE4F68817981C550D1400E944412D0
:1038A00060EC79ED0E947212C95FDE4F6881798108
:1038B000C750D1400E94441260EC79ED0E94721210
:1038C000C75FDE4F68817981C950D1400E944412A0
:1038D00060EC79ED0E947212B701A6010E94E61118
:1038E00060EC79ED0E9472126BE070E00E9444126D
:1038F00062EE79ED0E9472120E940D04CE0189568B
:103900009F4F0E944611CE0181569F4F0E94461143
:1039100080910E2A90910F2A819709F046C080E08D
:1039200090E0A8EDB1E480930A2A90930B2AA0932B
:103930000C2AB0930D2A63EE79EDCE0189569F4F84
:103940000E940A13BE0169567F4FC1010E940213F3
:1039500061E070E0C1010E94441260EC79ED0E94C8
:10396000721260E170E00E94441260EC79ED0E94F6
:10397000721240E050E068ED71E40E94E61160ECE4
:1039800079ED0E94721261E270E00E94441262EED0
:1039900079ED0E9472120E940D04C1010E9446112D
:1039A000CE0189569F4F0E94461180910E2A909118
:1039B0000F2AC79709F075C20091FB291091FC29C5
:1039C0002091FD293091FE294090E6295090E72969
:1039D0006090E8297090E9294091DC285091DD2819
:1039E0006091DE287091DF28C753DF4F48835983E9
:1039F0006A837B83C95CD040609100297091012962
:103A00008091022990910329CF52DF4F68837983F7
:103A10008A839B83C15DD0408091FC289091FD28D2
:103A2000A091FE28B091FF28CB52DF4F8883998365
:103A3000AA83BB83C55DD04040910B2950910C29CE
:103A400060910D2970910E29CF51DF4F4883598322
:103A50006A837B83C15ED0406091072970910829F9
:103A60008091092990910A29C352DF4F6883798395
:103A70008A839B83CD5DD04080912A2890912B280A
:103A8000A0912C28B0912D28CB51DF4F88839983AA
:103A9000AA83BB83C55ED040409182285091832881
:103AA0006091842870918528C751DF4F48835983DE
:103AB0006A837B83C95ED04060912E2870912F2845
:103AC0008091302890913128C351DF4F68837983EA
:103AD0008A839B83CD5ED0408091D5289091D62853
:103AE000A091D728B091D828CF50DF4F88839983F1
:103AF000AA83BB83C15FD0404091F5285091F6283E
:103B00006091F7287091F828CB50DF4F4883598394
:103B10006A837B83C55FD0408091E1289091E22841
:103B20006CE370E00E949E49C750DF4F6883798341
:103B3000C95FD040BCE3CB2ED12CE12CF12CC901C4
:103B4000B801A70196010E94B14949015A01C30178
:103B5000B201A70196010E94B149C501B401620FEB
:103B6000731F841F951F0E94FC46C753DF4F288197
:103B700039814A815B81C95CD0400E945F48CF5245
:103B8000DF4F288139814A815B81C15DD0400E942D
:103B90005F48CB52DF4F288139814A815B81C55D07
:103BA000D0400E945F48CF51DF4F288139814A8140
:103BB0005B81C15ED0400E945F48C352DF4F2881C5
:103BC00039814A815B81CD5DD0400E945F48CB51F5
:103BD000DF4F288139814A815B81C55ED0400E94D8
:103BE0005F48C751DF4F288139814A815B81C95EB7
:103BF000D0400E945F484B015C01C351DF4F688198
:103C000079818A819B81CD5ED0400E94FC469B01D8
:103C1000AC01C501B4010E945F484B015C01CF506B
:103C2000DF4F688179818A819B81C15FD0400E948A
:103C3000FC469B01AC01C501B4010E945F484B01E9
:103C40005C01CB50DF4F688179818A819B81C55FA0
:103C5000D0400E94FC469B01AC01C501B4010E940A
:103C60005F484B015C01C750DF4F08811981C95F74
:103C7000D040B801110F880B990B0E94FE469B01A2
:103C8000AC01C501B4010E945F4820E030E040E291
:103C900051E40E945F484B015C0180920A2A909295
:103CA0000B2AA0920C2AB0920D2A2091E62930917D
:103CB000E7294091E8295091E929C350DF4F288333
:103CC00039834A835B83CD5FD0404090FB2950907D
:103CD000FC296090FD297090FE2963EE79EDCE01FC
:103CE00089569F4F0E940A13BE0169567F4FC1013A
:103CF0000E940213C301B201A70196010E94B149BB
:103D0000BA01A901C1010E94151260EC79ED0E946F
:103D100072128C01C350DF4F688179818A819B8147
:103D2000CD5FD040A70196010E94B149BA01A90117
:103D3000C8010E94151260EC79ED0E947212C753FF
:103D4000DF4F488159816A817B81C95CD0400E94E4
:103D5000E61160EC79ED0E947212CF52DF4F48817C
:103D600059816A817B81C15DD0400E94E61160EC7F
:103D700079ED0E947212CB52DF4F488159816A81DE
:103D80007B81C55DD0400E94E61160EC79ED0E9418
:103D90007212CF51DF4F488159816A817B81C15EA8
:103DA000D0400E94E61160EC79ED0E947212C3527D
:103DB000DF4F488159816A817B81CD5DD0400E946F
:103DC000E61160EC79ED0E947212CB51DF4F488111
:103DD00059816A817B81C55ED0400E94E61160EC0A
:103DE00079ED0E947212C751DF4F488159816A8173
:103DF0007B81C95ED0400E94E61160EC79ED0E94A3
:103E00007212C351DF4F488159816A817B81CD5E37
:103E1000D0400E94151260EC79ED0E947212CF50D2
:103E2000DF4F488159816A817B81C15FD0400E9408
:103E3000151260EC79ED0E947212CB50DF4F488171
:103E400059816A817B81C55FD0400E94151260EC68
:103E500079ED0E947212C750DF4F68817981C95F86
:103E6000D0400E94441260EC79ED0E947212B501BC
:103E7000A4010E94E61160EC79ED0E94721267E3E2
:103E800070E00E94441262EE79ED0E9472120E946C
:103E90000D04C1010E944611CE0189569F4F0E9418
:103EA000461180910E2A90910F2A8D34910519F4B4
:103EB000F0E0E0E0099580910E2A90910F2A833678
:103EC000910561F40E94E80C60930A2A70930B2A12
:103ED00080930C2A90930D2A0E94641580910E2ADB
:103EE00090910F2A8C9709F066C08091162A9091C4
:103EF000172A892B41F01092782810927928109275
:103F0000162A1092172A8091142A9091152A892B2B
:103F100031F48091122A9091132A892B61F010922A
:103F20007A2810927B281092142A1092152A109247
:103F3000122A1092132A10921A2A10921B2A1092F7
:103F4000182A1092192A1092202A1092212A1092CF
:103F5000222A1092232A1092D52A1092D62A109241
:103F60001E2A10921F2A10921C2A10921D2A1092AB
:103F7000102A1092112A63EE79EDC1010E940A13F2
:103F8000B101CE0189569F4F0E94021362E27EE288
:103F9000CE0189569F4F0E94861262EE79ED0E94F3
:103FA00072120E940D04CE0189569F4F0E94461145
:103FB000C1010E94461180910E2A90910F2A8336EA
:103FC000910561F40E94E80C60930A2A70930B2A11
:103FD00080930C2A90930D2A0E94641580910E2ADA
:103FE00090910F2A469709F043C060E47EE2C10138
:103FF0000E94021342E050E0B101CE0189569F4F6A
:104000000E94DF14C1010E944611CE0189569F4FC4
:104010000E9458116130710509F042C360E47EE2EC
:10402000CE0181569F4F0E94021343E050E0BE0133
:1040300061567F4FC1010E94DF14CE0181569F4F10
:104040000E944611C1010E944D1121E02093CF2909
:104050006093CB297093CC298093CD299093CE295E
:10406000C1010E944611CE0189569F4F0E94461100
:1040700080910E2A90910F2A8234910599F48091B3
:10408000092A882309F433C380E090E0A0E3B1E477
:1040900080930A2A90930B2AA0930C2AB0930D2A9E
:1040A0000E94321680910E2A90910F2A8835910530
:1040B00009F03FC063EE79EDC1010E940A13B1011E
:1040C000CE0189569F4F0E94021362E27EE2CE012A
:1040D00089569F4F0E94861262EE79ED0E947212FD
:1040E0000E940D04CE0189569F4F0E944611C101C6
:1040F0000E94461160E47EE2CE0189569F4F0E94E5
:10410000021342E050E0BE0169567F4FC1010E9498
:10411000DF14CE0189569F4F0E944611C1010E94B3
:1041200058116130710511F41092092AC1010E94E1
:10413000461180910E2A90910F2A892B09F046C2D0
:1041400060E47EE2C1010E94021342E050E0B1014E
:10415000CE0189569F4F0E94DF14C1010E94461173
:1041600060E47EE2CE0181569F4F0E94021343E03D
:1041700050E0BE0161567F4FC1010E94DF14CE01A5
:1041800081569F4F0E944611CE0189569F4F0E9433
:1041900058118B016093C4297093C529C1010E94F5
:1041A00058116093C2297093C329012B09F074C080
:1041B000672B09F0A1C21092C12981E08093C02928
:1041C000109215280E94F8098B019C016093B82970
:1041D0001093B9298093BA293093BB291092BC2936
:1041E0001092BD291092BE291092BF296093B02968
:1041F0001093B1298093B2293093B3291092B42936
:104200001092B5291092B6291092B7296093A82967
:104210001093A9298093AA293093AB291092AC2935
:104220001092AD291092AE291092AF296093A02967
:104230001093A1298093A2293093A3291092A42935
:104240001092A5291092A6291092A72963EE79ED64
:10425000CE0181569F4F0E940A13BE0161567F4FC7
:10426000CE018B559F4F0E94021362E27EE2CE0187
:104270008B559F4F0E94861262EE79ED0E9472125A
:104280000E940D04CE018B559F4F0E944611CE0116
:1042900081569F4F0E9446110091C4291091C52953
:1042A00001301105B9F58091C2299091C329892B5C
:1042B00009F026C260E088E00E943A0610921728B2
:1042C0001092182810929F2963EE79EDCE01815645
:1042D0009F4F0E940A13BE0161567F4FCE018B553E
:1042E0009F4F0E94021362E27EE2CE018B559F4FE8
:1042F0000E94861262EE79ED0E9472120E940D04F5
:10430000CE018B559F4F0E944611CE0181569F4F83
:104310000E9446118091C4299091C5290297B9F550
:104320008091C2299091C329892B09F0F5C160E0E1
:1043300087E00E943A061092DF291092E02910923D
:10434000E12963EE79EDCE0181569F4F0E940A1359
:10435000BE0161567F4FCE018B559F4F0E940213C5
:1043600062E27EE2CE018B559F4F0E94861262EE82
:1043700079ED0E9472120E940D04CE018B559F4F61
:104380000E944611CE0181569F4F0E944611809196
:10439000C4299091C5290397A9F58091C2299091CC
:1043A000C329892B09F0C5C160E083E00E943A0669
:1043B00060E084E00E943A0663EE79EDCE0181561A
:1043C0009F4F0E940A13BE0161567F4FCE018B554D
:1043D0009F4F0E94021362E27EE2CE018B559F4FF7
:1043E0000E94861262EE79ED0E9472120E940D0404
:1043F000CE018B559F4F0E944611CE0181569F4F93
:104400000E9446118091C4299091C529049789F58D
:104410008091C2299091C32960E0892B09F061E065
:1044200085E00E943A0663EE79EDCE0181569F4FFA
:104430000E940A13BE0161567F4FCE018B559F4FDC
:104440000E94021362E27EE2CE018B559F4F0E94D2
:10445000861262EE79ED0E9472120E940D04CE0166
:104460008B559F4F0E944611CE0181569F4F0E944F
:1044700046118091C4299091C529059789F58091AD
:10448000C2299091C32960E0892B09F061E086E0A0
:104490000E943A0663EE79EDCE0181569F4F0E944D
:1044A0000A13BE0161567F4FCE018B559F4F0E946C
:1044B000021362E27EE2CE018B559F4F0E9486126C
:1044C00062EE79ED0E9472120E940D04CE018B55AE
:1044D0009F4F0E944611CE0181569F4F0E94461168
:1044E0008091C4299091C529069789F58091C229A8
:1044F0009091C32960E0892B09F061E083E00E947C
:104500003A0663EE79EDCE0181569F4F0E940A1361
:10451000BE0161567F4FCE018B559F4F0E94021303
:1045200062E27EE2CE018B559F4F0E94861262EEC0
:1045300079ED0E9472120E940D04CE018B559F4F9F
:104540000E944611CE0181569F4F0E9446118091D4
:10455000C4299091C529079789F58091C229909126
:10456000C32960E0892B09F061E084E00E943A06EB
:1045700063EE79EDCE0181569F4F0E940A13BE0172
:1045800061567F4FCE018B559F4F0E94021362E20E
:104590007EE2CE018B559F4F0E94861262EE79ED2E
:1045A0000E9472120E940D04CE018B559F4F0E94F3
:1045B0004611CE0181569F4F0E944611C1010E94B3
:1045C0004611CE0189569F4F0E944611C0900E2A77
:1045D000D0900F2AF1E0CF16D10409F003C260E4B5
:1045E0007EE2C1010E94021342E050E0B101CE011F
:1045F00089569F4F0E94DF14C1010E94461160E45A
:104600007EE2CE0181569F4F0E94021343E050E0AC
:10461000BE0161567F4FC1010E94DF14CE01815659
:104620009F4F0E944611CE0189569F4F0E945811FC
:104630008B0160939D2970939E29C1010E9458119E
:104640007B0160939B2970939C290115110509F04A
:1046500076C060931328709314280430110509F074
:10466000D7C080910B2890910C28EF2809F087C1C2
:10467000019709F030C160E081E00E943A06109293
:104680000B2810920C288091D72A9091D82AA091BB
:10469000D92AB091DA2A805B9F4FAF4FBF4F13C129
:1046A0006230710509F0DFCC60E47EE2CE01815614
:1046B0009F4F0E94021343E050E0BE0161567F4FBE
:1046C000C1010E94DF14CE0181569F4F0E94461106
:1046D000C1010E944D1121E02093CA296093C6298F
:1046E0007093C7298093C8299093C929B9CC80E0D9
:1046F00090E0A0E2B1E4CCCC81E08093C129A6CDCA
:1047000061E088E00E943A06009317281093182869
:1047100081E080939F29D8CD61E087E00E943A062E
:1047200081E090E08093DF299093E0298093E12954
:1047300008CE61E083E00E943A0661E03ACE0F3F86
:104740001105E1F5672B09F560E086E20E943A0663
:1047500060E087E20E943A0660E080E00E943A064C
:1047600060E081E00E943A0660E082E00E943A0642
:104770008FE996E8A1E0B0E08093D72A9093D82AF9
:10478000A093D92AB093DA2A68CF61E086E20E942A
:104790003A0661E087E20E943A0661E080E00E940A
:1047A0003A0661E081E00E943A0661E082E00E9400
:1047B0003A0687E69BE2A0E0B0E0DECF01301105CB
:1047C00009F05FC08091112890911228E114F10442
:1047D00009F040C00197E1F460E086E20E943A06E9
:1047E00010921128109212288091D72A9091D82ADD
:1047F000A091D92AB091DA2A8058974CAE4FBF4F7A
:104800008093D72A9093D82AA093D92AB093DA2AF2
:104810000530110509F05FC08091092890910A28A0
:10482000EF2809F0C6C0019709F055C060E082E0AA
:104830000E943A061092092810920A288091D72ADD
:104840009091D82AA091D92AB091DA2A0896A11D70
:10485000B11D39C0892BE1F661E086E20E943A067B
:1048600000931128109312288091D72A9091D82A6A
:10487000A091D92AB091DA2A80589843A140B10971
:10488000BFCF0230110511F00C942A3C80910F2803
:1048900090911028EF2809F044C00197E1F460E0FE
:1048A00087E20E943A0610920F28109210288091F9
:1048B000D72A9091D82AA091D92AB091DA2A805C7F
:1048C000904EAF4FBF4F8093D72A9093D82AA09392
:1048D000D92AB093DA2AC1010E944611CE01895625
:1048E0009F4F0E94461163EE79ED80E49EE20E94A4
:1048F000B612CE018F549F4F0E9446111092D029BC
:104900001092D1291092D2291092D3291092D42931
:104910001092D529CE0189549F4F0E9446110C94C4
:104920006B18892BC1F661E087E20E943A06C092BB
:104930000F28D09210288091D72A9091D82AA09140
:10494000D92AB091DA2A80549F41A109B109BBCF7D
:10495000892B09F661E080E00E943A06C0920D289A
:10496000D0920E288091D72A9091D82AA091D92A46
:10497000B091DA2A80529340A109B109A4CF892BC2
:1049800009F0A9CF61E081E00E943A0681E090E061
:1049900080930B2890930C288091D72A9091D82A45
:1049A000A091D92AB091DA2A80559109A109B109BB
:1049B0008ACF892B09F08FCF61E082E00E943A060E
:1049C00081E090E08093092890930A288091D72A6B
:1049D0009091D82AA091D92AB091DA2A0897A109F2
:1049E000B10971CF02E0C016D10409F07CCF60E4B8
:1049F0007EE2C1010E94021342E050E0B101CE010B
:104A000085559F4F0E94DF14C1010E944611CE01BF
:104A100085559F4F0E9458116093992970939A2948
:104A2000672B11F40E9468138091992990919A291B
:104A3000019709F08EC060E47EE2C1010E9402137A
:104A400043E050E0B101CE0189569F4F0E94DF1430
:104A5000C1010E94461160E47EE2CE0181569F4F63
:104A60000E94021344E050E0BE0161567F4FC10135
:104A70000E94DF14CE0181569F4F0E944611CE0145
:104A800089569F4F0E945811C62EE62EF72EE092AF
:104A90009729F0929829C1010E945811D62E062F0D
:104AA000172F00939529109396298091932990911F
:104AB0009429E816F90609F013C58091912990917F
:104AC00092290817190709F00BC5109208286C2DB8
:104AD00090E080E00E948C0C6D2D84E090E00E94BC
:104AE0008C0CE0929329F0929429009391291093D1
:104AF000922963EE79EDCE0181569F4F0E940A13F1
:104B0000BE0161567F4FCE018B559F4F0E9402130D
:104B100062E27EE2CE018B559F4F0E94861262EECA
:104B200079ED0E9472120E940D04CE018B559F4FA9
:104B30000E944611CE0181569F4F0E9446110E944D
:104B40006813C1010E944611CE0189569F4F0E94F1
:104B500046118091992990919A29029709F0F3C002
:104B600060E47EE2C1010E94021343E050E0B10123
:104B7000CE0181569F4F0E94DF14C1010E94461151
:104B800060E47EE2C1010E94021344E050E0B10102
:104B9000CE0189569F4F0E94DF14C1010E94461129
:104BA00060E47EE2CE018B559F4F0E94021345E0E8
:104BB00050E0BE016B557F4FC1010E94DF14CE0152
:104BC0008B559F4F0E944611CE0181569F4F0E94E8
:104BD0004D116B017C01CE0189569F4F0E944D11F2
:104BE0002B013C01C1010E944D114B015C0120E0F1
:104BF00030E040E251E4C701B6010E945D470E94E7
:104C00002B49D62EC72EE62EF72E862F9C2D80936D
:104C10008F299093902920E030E040E251E4C301D5
:104C2000B2010E945D470E942B49762E672E062F07
:104C3000172F862F962D80938D2990938E2920E013
:104C400030E040E251E4C501B4010E945D470E949A
:104C50002B49B62EA72E262F372F862F9A2D8093DD
:104C60008B2990938C298091892990918A29E81623
:104C7000F90609F039C4809187299091882908178D
:104C8000190709F031C48091852990918629281748
:104C9000390709F029C4109208286D2D88E090E0AA
:104CA0000E948C0C672D8CE090E00E948C0C6B2D88
:104CB00080E190E00E948C0C8D2D9C2D80938929A1
:104CC00090938A29872D962D809387299093882900
:104CD0008B2D9A2D809385299093862963EE79ED0B
:104CE000CE018B559F4F0E940A13BE016B557F4F1B
:104CF000CE0183549F4F0E94021362E27EE2CE01F6
:104D000083549F4F0E94861262EE79ED0E947212C8
:104D10000E940D04CE0183549F4F0E944611CE0184
:104D20008B559F4F0E9446110E946813C1010E943B
:104D30004611CE0189569F4F0E944611CE018156E1
:104D40009F4F0E9446118091992990919A2903972B
:104D500009F080C060E47EE2C1010E94021343E0DA
:104D600050E0B101CE0189569F4F0E94DF14C1016E
:104D70000E94461160E47EE2CE0181569F4F0E9460
:104D8000021344E050E0BE0161567F4FC1010E9412
:104D9000DF14CE0181569F4F0E9446116EE27EE2E3
:104DA000CE0189569F4F0E946311882309F4A0C346
:104DB00068E27EE2C1010E946311882309F498C36E
:104DC00010920828BE0169567F4F84E190E00E944E
:104DD000A50CB10189E190E00E94A50CBE016956C5
:104DE0007F4F8EE29EE20E94ED12B10188E29EE2C8
:104DF0000E94ED1263EE79EDCE0181569F4F0E9425
:104E00000A13BE0161567F4FCE018B559F4F0E9402
:104E1000021362E27EE2CE018B559F4F0E94861202
:104E200062EE79ED0E9472120E940D04CE018B5544
:104E30009F4F0E944611CE0181569F4F0E944611FE
:104E40000E946813C1010E944611CE0189569F4FEE
:104E50000E9446118091992990919A29049709F00E
:104E60007FC060E47EE2C1010E94021343E050E093
:104E7000B101CE0189569F4F0E94DF14C1010E94EB
:104E8000461160E47EE2CE0181569F4F0E940213DC
:104E900044E050E0BE0161567F4FC1010E94DF1423
:104EA000CE0181569F4F0E9446116AE37EE2CE01F9
:104EB00089569F4F0E946311882339F064E37EE294
:104EC000C1010E946311811117C381E080930828FA
:104ED000BE0169567F4F8FE190E00E94A50CB101A1
:104EE00084E290E00E94A50CBE0169567F4F8AE3E0
:104EF0009EE20E94ED12B10184E39EE20E94ED1257
:104F000063EE79EDCE0181569F4F0E940A13BE01D8
:104F100061567F4FCE018B559F4F0E94021362E274
:104F20007EE2CE018B559F4F0E94861262EE79ED94
:104F30000E9472120E940D04CE018B559F4F0E9459
:104F40004611CE0181569F4F0E9446110E94681360
:104F5000C1010E944611CE0189569F4F0E94461101
:104F60008091992990919A29059709F0F2C060E4FF
:104F70007EE2C1010E94021343E050E0B101CE0184
:104F80008B559F4F0E94DF14C1010E94461160E4BF
:104F90007EE2C1010E94021344E050E0B101CE0163
:104FA00081569F4F0E94DF14C1010E94461160E4A8
:104FB0007EE2C1010E94021345E050E0B101CE0142
:104FC00089569F4F0E94DF14C1010E94461160E480
:104FD0007EE2CE0183549F4F0E94021346E050E0D0
:104FE000BE0163547F4FC1010E94DF14CE01835480
:104FF0009F4F0E944611CE018B559F4F0E94581122
:10500000662EA62EB72EA0928329B0928429CE01B7
:1050100081569F4F0E945811762EC62ED72EC092D1
:105020008129D0928229CE0189569F4F0E94581122
:10503000862EE62EF72EE0927F29F0928029C1017C
:105040000E945811962E062F172F00937D2910933A
:105050007E2980917B2990917C29A816B90609F0B8
:105060004EC28091792990917A29C816D90609F003
:1050700046C28091772990917829E816F90609F0BF
:105080003EC280917529909176290817190709F079
:1050900036C210920828662D89E290E00E948C0C9E
:1050A000672D8DE290E00E948C0C682D81E390E0EA
:1050B0000E948C0C692D85E390E00E948C0CA092DC
:1050C0007B29B0927C29C0927929D0927A29E092EA
:1050D0007729F0927829009375291093762963EE49
:1050E00079EDCE0183549F4F0E940A13BE01635491
:1050F0007F4FCE018D539F4F0E94021362E27EE2EA
:10510000CE018D539F4F0E94861262EE79ED0E9470
:1051100072120E940D04CE018D539F4F0E944611C2
:10512000CE0183549F4F0E9446110E946813C10113
:105130000E944611CE0189569F4F0E944611CE0112
:1051400081569F4F0E944611CE018B559F4F0E9462
:1051500046118091992990919A29069709F0D4C017
:1051600060E47EE2C1010E94021343E050E0B1011D
:10517000CE0189569F4F0E94DF14C1010E94461143
:10518000CE0189569F4F0E945811609373297093E6
:10519000742960E47EE2CE0181569F4F0E94021383
:1051A00044E050E0BE0161567F4FC1010E94DF1410
:1051B000CE0181569F4F0E944611C1010E944D11A0
:1051C0006B017C018091732990917429019799F565
:1051D00081E080937229C0926E29D0926F29E0926B
:1051E0007029F09271291092072863EE79EDCE01B3
:1051F00081569F4F0E940A13BE0161567F4FCE0118
:105200008B559F4F0E94021362E27EE2CE018B55C6
:105210009F4F0E94861262EE79ED0E9472120E94E8
:105220000D04CE018B559F4F0E944611CE01815631
:105230009F4F0E9446118091732990917429029783
:1052400099F581E080936D29C0926929D0926A29ED
:10525000E0926B29F0926C291092192863EE79ED97
:10526000CE0181569F4F0E940A13BE0161567F4FA7
:10527000CE018B559F4F0E94021362E27EE2CE0167
:105280008B559F4F0E94861262EE79ED0E9472123A
:105290000E940D04CE018B559F4F0E944611CE01F6
:1052A00081569F4F0E94461163EE79EDCE018156E3
:1052B0009F4F0E940A13BE0161567F4FCE018B554E
:1052C0009F4F0E94021362E27EE2CE018B559F4FF8
:1052D0000E94861262EE79ED0E9472120E940D0405
:1052E000CE018B559F4F0E944611CE0181569F4F94
:1052F0000E9446110E946813C1010E944611CE010E
:1053000089569F4F0E9446118091992990919A2920
:10531000079709F0E1C060E47EE2C1010E94021338
:1053200043E050E0B101CE0189569F4F0E94DF1447
:10533000C1010E944611CE0189569F4F0E9458110B
:1053400060936729709368296130710509F04BC03B
:1053500060E47EE2CE0181569F4F0E94021344E03A
:1053600050E0BE0161567F4FC1010E94DF14CE01A3
:1053700081569F4F0E944611C1010E944D1121E0AC
:10538000209366296093622970936329809364292E
:105390009093652963EE79EDCE0181569F4F0E946F
:1053A0000A13BE0161567F4FCE018B559F4F0E945D
:1053B000021362E27EE2CE018B559F4F0E9486125D
:1053C00062EE79ED0E9472120E940D04CE018B559F
:1053D0009F4F0E944611CE0181569F4F0E94461159
:1053E000C1010E9446118091672990916829029716
:1053F00009F04BC060E47EE2CE0181569F4F0E94CF
:10540000021344E050E0BE0161567F4FC1010E948B
:10541000DF14CE0181569F4F0E944611C1010E94A8
:105420004D1121E02093612960935D2970935E29DD
:1054300080935F299093602963EE79EDCE018156C8
:105440009F4F0E940A13BE0161567F4FCE018B55BC
:105450009F4F0E94021362E27EE2CE018B559F4F66
:105460000E94861262EE79ED0E9472120E940D0473
:10547000CE018B559F4F0E944611CE0181569F4F02
:105480000E944611C1010E94461163EE79EDC101EF
:105490000E940A13B101CE0181569F4F0E94021350
:1054A00062E27EE2CE0181569F4F0E94861262EE3A
:1054B00079ED0E9472120E940D04CE0181569F4F19
:1054C0000E944611C1010E9446110E946813CE013C
:1054D00089569F4F0E944611CE0185559F4F01CAA4
:1054E00081E080930828F3CA81E080930828D5CB17
:1054F00081E08093082866CC10920828E9CC81E0EE
:1055000080930828C8CD63EE79ED80E49EE20E9486
:10551000B61263EE79EDC1010E940A13B101CE010A
:1055200089569F4F0E9402136CE17EE2CE0189569C
:105530009F4F0E94861262EE79ED0E9472120E94C5
:105540000D04CE0189569F4F0E944611C101D4C956
:1055500080916629882301F120E030E040E752E4A1
:1055600060916229709163298091642990916529E5
:105570000E94C3489B01AC0160E070E080E291E4CE
:105580000E94C3480E9430498AE390E00E948C0C3C
:105590000E9468131092662980916129882301F185
:1055A00020E030E040E752E460915D2970915E298F
:1055B00080915F29909160290E94C3489B01AC01B2
:1055C00060E070E080E291E40E94C3480E943049AC
:1055D00088E490E00E948C0C0E946813109261296C
:1055E000E0916C2EF0916D2E13861586148612862E
:1055F00011861086178216821582148213821092E9
:105600006A2E10926B2E4E0117E9810E911C11E04B
:10561000B40180916C2E90916D2E0E94DE0F882334
:1056200009F475C067E0C4010E94350AD4011796D9
:105630009C9117978913ECCF80916A2E8F5F80938E
:105640006A2E8C91883231F008F047C0803111F019
:105650008232F1F680916B2E8F5F80936B2E80915A
:10566000632E811126C080916C2E90916D2E0E9428
:10567000380FB40180916C2E90916D2E0E94DD0A3E
:1056800040E064EB80916C2E90916D2E0E94A80AF0
:1056900080916C2E90916D2E0E944C0A082F809163
:1056A0006C2E90916D2E0E94380F011102C0109344
:1056B000632EF40180818031D9F0BE016F5F7F4F8E
:1056C000C4010E94720F882331F08D818F3391F0D5
:1056D00058F48F31C1F080E00EC08B3309F4BACF9B
:1056E000823409F095CFB6CF8F3579F08F3799F79F
:1056F0008CE001C08AE09091662E981708F088CF60
:105700008093662E85CF89E0F6CF8BE0F4CF809131
:105710006C2E90916D2E0E94380F40E06CEC8091C1
:105720006C2E90916D2E0E94A80A4091632E64E425
:1057300080916C2E90916D2E0E94A80A8091672E08
:10574000882321F1E091662E8091682E882311F440
:105750000C9417388091632E81110C9417380E9495
:10576000F8096B017C0180916C2E90916D2E0E9446
:105770004C0A813059F00E94F8096C197D098E0994
:105780009F096E3E72408105910568F3E0916C2E91
:10579000F0916D2E1386158614861286118610865A
:1057A00017821682158214821382B40180916C2EA6
:1057B00090916D2E0E94DE0F81110C94413860E0B3
:1057C00070E08EEF92EC6093DB297093DC2980937C
:1057D000DD299093DE298EE10E940C07182F81E0CD
:1057E00090E0112311F090E080E08093DB2A909309
:1057F000DC2A86E10E940C0790E011110C94973886
:10580000892B11F40C94993882E090E08093FF2961
:105810009093002A0E94F8097B018C0120E030E07F
:10582000A901C753DF4F6883C95CD040C653DF4F1F
:10583000F882CA5CD040C553DF4F8883CB5CD04030
:10584000C453DF4F1883CC5CD040C353DF4F288351
:10585000CD5CD040C253DF4F3883CE5CD040C153C3
:10586000DF4F4883CF5CD040C053DF4F5883C05DCB
:10587000D0402091DE2A3091DF2A4091E02A5091D9
:10588000E12A6091E22A7091E32A8091E42A9091C2
:10589000E52A28573C4E4F4F5F4F6F4F7F4F8F4F3A
:1058A0009F4F59016A017B018C01C753DF4F28814B
:1058B000C95CD040C653DF4F3881CA5CD040C55365
:1058C000DF4F4881CB5CD040C453DF4F5881CC5C64
:1058D000D04060E070E080E090E00E94274A50F104
:1058E0002093DE2A3093DF2A4093E02A5093E12A66
:1058F0001092E22A1092E32A1092E42A1092E52AEA
:10590000809136289091372869E470E00E949E4982
:10591000072E000C880B990B0E94FE4660933228DC
:10592000709333288093342890933528109236282A
:105930001092372820E030E040E451E460913228B2
:105940007091332880913428909135280E945D47CA
:1059500020E030E040EF51E40E94C34860935929B1
:1059600070935A2980935B2990935C298091DD2A5A
:10597000882311F40C94A33848E358E265E379E2F4
:1059800081E59EE20E941D1780914C2890914D2840
:10599000A0914E28B0914F288093E2299093E3295B
:1059A000A093E429B093E5298091492990914A294F
:1059B000A0914B29B0914C298093312990933229A1
:1059C000A0933329B093342981E20E940C0721E08F
:1059D00030E0882311F030E020E020932F2930932D
:1059E00030298DE10E940C0721E030E0882311F07E
:1059F00030E020E020932D2930932E298FE10E9462
:105A00000C0721E030E0882311F030E020E0209303
:105A10002B2930932C2980E20E940C0721E030E0F2
:105A2000882311F030E020E02093292930932A299F
:105A30008091C029882309F4EEC160E08CE00E94C7
:105A40003A060E94F8095B016C012091B829309157
:105A5000B9294091BA295091BB296091BC29709114
:105A6000BD298091BE299091BF2928573C4E4F4FA8
:105A70005F4F6F4F7F4F8F4F9F4F29013A01B62FD6
:105A8000A72FF82FE92F9501A60160E070E080E0D4
:105A900090E052016301EB2EFA2E0F2F1E2F0E9471
:105AA000274A29F020F061E08BE00E943A060E942C
:105AB000F8095B016C012091B0293091B129409126
:105AC000B2295091B3296091B4297091B529809180
:105AD000B6299091B7292856354C4F4F5F4F6F4FDD
